{
  "_format": "hh-sol-artifact-1",
  "contractName": "BlackVaultV2",
  "sourceName": "contracts/BlackVault.sol",
  "abi": [
    {
      "inputs": [
        {
          "internalType": "address",
          "name": "_usdtAddress",
          "type": "address"
        },
        {
          "internalType": "address",
          "name": "_feeWallet",
          "type": "address"
        }
      ],
      "stateMutability": "nonpayable",
      "type": "constructor"
    },
    {
      "anonymous": false,
      "inputs": [
        {
          "indexed": true,
          "internalType": "address",
          "name": "user",
          "type": "address"
        },
        {
          "indexed": false,
          "internalType": "uint256",
          "name": "amount",
          "type": "uint256"
        },
        {
          "indexed": true,
          "internalType": "address",
          "name": "referrer",
          "type": "address"
        },
        {
          "indexed": false,
          "internalType": "uint256",
          "name": "cycle",
          "type": "uint256"
        }
      ],
      "name": "Deposited",
      "type": "event"
    },
    {
      "anonymous": false,
      "inputs": [
        {
          "indexed": true,
          "internalType": "address",
          "name": "by",
          "type": "address"
        },
        {
          "indexed": false,
          "internalType": "uint256",
          "name": "pausedUntil",
          "type": "uint256"
        },
        {
          "indexed": false,
          "internalType": "string",
          "name": "reason",
          "type": "string"
        }
      ],
      "name": "EmergencyPaused",
      "type": "event"
    },
    {
      "anonymous": false,
      "inputs": [
        {
          "indexed": true,
          "internalType": "address",
          "name": "user",
          "type": "address"
        },
        {
          "indexed": false,
          "internalType": "uint256",
          "name": "amount",
          "type": "uint256"
        }
      ],
      "name": "EmergencyRewarded",
      "type": "event"
    },
    {
      "anonymous": false,
      "inputs": [
        {
          "indexed": true,
          "internalType": "address",
          "name": "by",
          "type": "address"
        }
      ],
      "name": "EmergencyUnpaused",
      "type": "event"
    },
    {
      "anonymous": false,
      "inputs": [
        {
          "indexed": false,
          "internalType": "bool",
          "name": "enabled",
          "type": "bool"
        }
      ],
      "name": "GiveawayEnabled",
      "type": "event"
    },
    {
      "anonymous": false,
      "inputs": [
        {
          "indexed": true,
          "internalType": "address",
          "name": "user",
          "type": "address"
        },
        {
          "indexed": false,
          "internalType": "uint256",
          "name": "amount",
          "type": "uint256"
        }
      ],
      "name": "ReferralRewardsWithdrawn",
      "type": "event"
    },
    {
      "anonymous": false,
      "inputs": [
        {
          "indexed": true,
          "internalType": "address",
          "name": "user",
          "type": "address"
        },
        {
          "indexed": false,
          "internalType": "uint256",
          "name": "amount",
          "type": "uint256"
        },
        {
          "indexed": false,
          "internalType": "uint256",
          "name": "cycle",
          "type": "uint256"
        }
      ],
      "name": "RewardsWithdrawn",
      "type": "event"
    },
    {
      "anonymous": false,
      "inputs": [
        {
          "indexed": false,
          "internalType": "address[3]",
          "name": "winners",
          "type": "address[3]"
        },
        {
          "indexed": false,
          "internalType": "uint256[3]",
          "name": "amounts",
          "type": "uint256[3]"
        },
        {
          "indexed": false,
          "internalType": "uint256",
          "name": "timestamp",
          "type": "uint256"
        }
      ],
      "name": "WeeklyPrizesDistributed",
      "type": "event"
    },
    {
      "inputs": [],
      "name": "CYCLE_DURATION",
      "outputs": [
        {
          "internalType": "uint256",
          "name": "",
          "type": "uint256"
        }
      ],
      "stateMutability": "view",
      "type": "function"
    },
    {
      "inputs": [],
      "name": "CYCLE_START_TIME",
      "outputs": [
        {
          "internalType": "uint256",
          "name": "",
          "type": "uint256"
        }
      ],
      "stateMutability": "view",
      "type": "function"
    },
    {
      "inputs": [],
      "name": "DAILY_RATE",
      "outputs": [
        {
          "internalType": "uint256",
          "name": "",
          "type": "uint256"
        }
      ],
      "stateMutability": "view",
      "type": "function"
    },
    {
      "inputs": [],
      "name": "MAX_DEPOSIT",
      "outputs": [
        {
          "internalType": "uint256",
          "name": "",
          "type": "uint256"
        }
      ],
      "stateMutability": "view",
      "type": "function"
    },
    {
      "inputs": [],
      "name": "MAX_PAUSE_DURATION",
      "outputs": [
        {
          "internalType": "uint256",
          "name": "",
          "type": "uint256"
        }
      ],
      "stateMutability": "view",
      "type": "function"
    },
    {
      "inputs": [],
      "name": "MAX_REFERRAL_REWARDS_PER_REFEREE",
      "outputs": [
        {
          "internalType": "uint256",
          "name": "",
          "type": "uint256"
        }
      ],
      "stateMutability": "view",
      "type": "function"
    },
    {
      "inputs": [],
      "name": "MAX_WITHDRAWAL_PER_CYCLE",
      "outputs": [
        {
          "internalType": "uint256",
          "name": "",
          "type": "uint256"
        }
      ],
      "stateMutability": "view",
      "type": "function"
    },
    {
      "inputs": [],
      "name": "MIN_DEPOSIT",
      "outputs": [
        {
          "internalType": "uint256",
          "name": "",
          "type": "uint256"
        }
      ],
      "stateMutability": "view",
      "type": "function"
    },
    {
      "inputs": [],
      "name": "REFERRAL_REWARD_PERCENT",
      "outputs": [
        {
          "internalType": "uint256",
          "name": "",
          "type": "uint256"
        }
      ],
      "stateMutability": "view",
      "type": "function"
    },
    {
      "inputs": [],
      "name": "USDT",
      "outputs": [
        {
          "internalType": "contract IERC20",
          "name": "",
          "type": "address"
        }
      ],
      "stateMutability": "view",
      "type": "function"
    },
    {
      "inputs": [],
      "name": "contractLaunchCycle",
      "outputs": [
        {
          "internalType": "uint256",
          "name": "",
          "type": "uint256"
        }
      ],
      "stateMutability": "view",
      "type": "function"
    },
    {
      "inputs": [
        {
          "internalType": "uint256",
          "name": "amount",
          "type": "uint256"
        }
      ],
      "name": "deposit",
      "outputs": [],
      "stateMutability": "nonpayable",
      "type": "function"
    },
    {
      "inputs": [
        {
          "internalType": "uint256",
          "name": "amount",
          "type": "uint256"
        },
        {
          "internalType": "address",
          "name": "referrer",
          "type": "address"
        }
      ],
      "name": "depositWithReferrer",
      "outputs": [],
      "stateMutability": "nonpayable",
      "type": "function"
    },
    {
      "inputs": [
        {
          "internalType": "address[3]",
          "name": "winners",
          "type": "address[3]"
        },
        {
          "internalType": "uint256[3]",
          "name": "amounts",
          "type": "uint256[3]"
        }
      ],
      "name": "distributeWeeklyPrizes",
      "outputs": [],
      "stateMutability": "nonpayable",
      "type": "function"
    },
    {
      "inputs": [
        {
          "internalType": "address",
          "name": "user",
          "type": "address"
        },
        {
          "internalType": "uint256",
          "name": "amount",
          "type": "uint256"
        }
      ],
      "name": "emergencyReward",
      "outputs": [],
      "stateMutability": "nonpayable",
      "type": "function"
    },
    {
      "inputs": [],
      "name": "feeWallet",
      "outputs": [
        {
          "internalType": "address",
          "name": "",
          "type": "address"
        }
      ],
      "stateMutability": "view",
      "type": "function"
    },
    {
      "inputs": [
        {
          "internalType": "uint256",
          "name": "amount",
          "type": "uint256"
        }
      ],
      "name": "fundContract",
      "outputs": [],
      "stateMutability": "nonpayable",
      "type": "function"
    },
    {
      "inputs": [],
      "name": "getContractStats",
      "outputs": [
        {
          "internalType": "uint256",
          "name": "_totalDep",
          "type": "uint256"
        },
        {
          "internalType": "uint256",
          "name": "_rewardsWithdrawn",
          "type": "uint256"
        },
        {
          "internalType": "uint256",
          "name": "_refRewardsWithdrawn",
          "type": "uint256"
        },
        {
          "internalType": "uint256",
          "name": "_activeAmt",
          "type": "uint256"
        },
        {
          "internalType": "uint256",
          "name": "_users",
          "type": "uint256"
        },
        {
          "internalType": "uint256",
          "name": "_balance",
          "type": "uint256"
        },
        {
          "internalType": "uint256",
          "name": "_currCycle",
          "type": "uint256"
        }
      ],
      "stateMutability": "view",
      "type": "function"
    },
    {
      "inputs": [],
      "name": "getCurrentCycle",
      "outputs": [
        {
          "internalType": "uint256",
          "name": "",
          "type": "uint256"
        }
      ],
      "stateMutability": "view",
      "type": "function"
    },
    {
      "inputs": [
        {
          "internalType": "uint256",
          "name": "cycle",
          "type": "uint256"
        }
      ],
      "name": "getCycleStartTime",
      "outputs": [
        {
          "internalType": "uint256",
          "name": "",
          "type": "uint256"
        }
      ],
      "stateMutability": "pure",
      "type": "function"
    },
    {
      "inputs": [
        {
          "internalType": "address",
          "name": "referrer",
          "type": "address"
        },
        {
          "internalType": "address",
          "name": "referee",
          "type": "address"
        }
      ],
      "name": "getReferralBonusInfo",
      "outputs": [
        {
          "internalType": "uint256",
          "name": "used",
          "type": "uint256"
        },
        {
          "internalType": "uint256",
          "name": "remaining",
          "type": "uint256"
        }
      ],
      "stateMutability": "view",
      "type": "function"
    },
    {
      "inputs": [],
      "name": "getTimeUntilNextCycle",
      "outputs": [
        {
          "internalType": "uint256",
          "name": "",
          "type": "uint256"
        }
      ],
      "stateMutability": "view",
      "type": "function"
    },
    {
      "inputs": [],
      "name": "getUSDTAddress",
      "outputs": [
        {
          "internalType": "address",
          "name": "",
          "type": "address"
        }
      ],
      "stateMutability": "view",
      "type": "function"
    },
    {
      "inputs": [
        {
          "internalType": "address",
          "name": "user",
          "type": "address"
        }
      ],
      "name": "getUserROI",
      "outputs": [
        {
          "internalType": "uint256",
          "name": "invested",
          "type": "uint256"
        },
        {
          "internalType": "uint256",
          "name": "earned",
          "type": "uint256"
        },
        {
          "internalType": "uint256",
          "name": "roiBP",
          "type": "uint256"
        }
      ],
      "stateMutability": "view",
      "type": "function"
    },
    {
      "inputs": [
        {
          "internalType": "address",
          "name": "user",
          "type": "address"
        }
      ],
      "name": "getUserReferralData",
      "outputs": [
        {
          "internalType": "uint256",
          "name": "totalRewards",
          "type": "uint256"
        },
        {
          "internalType": "uint256",
          "name": "availableRewards",
          "type": "uint256"
        },
        {
          "internalType": "uint256",
          "name": "referredCount",
          "type": "uint256"
        },
        {
          "internalType": "uint256",
          "name": "totalVolume",
          "type": "uint256"
        },
        {
          "internalType": "uint256",
          "name": "totalWithdrawn",
          "type": "uint256"
        }
      ],
      "stateMutability": "view",
      "type": "function"
    },
    {
      "inputs": [
        {
          "internalType": "address",
          "name": "user",
          "type": "address"
        }
      ],
      "name": "getUserVault",
      "outputs": [
        {
          "internalType": "uint256",
          "name": "totalDep",
          "type": "uint256"
        },
        {
          "internalType": "uint256",
          "name": "activeAmt",
          "type": "uint256"
        },
        {
          "internalType": "uint256",
          "name": "queuedAmt",
          "type": "uint256"
        },
        {
          "internalType": "uint256",
          "name": "pending",
          "type": "uint256"
        },
        {
          "internalType": "uint256",
          "name": "withdrawn",
          "type": "uint256"
        },
        {
          "internalType": "uint256",
          "name": "lastCycle",
          "type": "uint256"
        },
        {
          "internalType": "uint256",
          "name": "joined",
          "type": "uint256"
        }
      ],
      "stateMutability": "view",
      "type": "function"
    },
    {
      "inputs": [],
      "name": "giveawayEnabled",
      "outputs": [
        {
          "internalType": "bool",
          "name": "",
          "type": "bool"
        }
      ],
      "stateMutability": "view",
      "type": "function"
    },
    {
      "inputs": [],
      "name": "giveawayFundSource",
      "outputs": [
        {
          "internalType": "address",
          "name": "",
          "type": "address"
        }
      ],
      "stateMutability": "view",
      "type": "function"
    },
    {
      "inputs": [],
      "name": "owner",
      "outputs": [
        {
          "internalType": "address",
          "name": "",
          "type": "address"
        }
      ],
      "stateMutability": "view",
      "type": "function"
    },
    {
      "inputs": [],
      "name": "paused",
      "outputs": [
        {
          "internalType": "bool",
          "name": "",
          "type": "bool"
        }
      ],
      "stateMutability": "view",
      "type": "function"
    },
    {
      "inputs": [],
      "name": "pausedUntil",
      "outputs": [
        {
          "internalType": "uint256",
          "name": "",
          "type": "uint256"
        }
      ],
      "stateMutability": "view",
      "type": "function"
    },
    {
      "inputs": [
        {
          "internalType": "address",
          "name": "",
          "type": "address"
        },
        {
          "internalType": "address",
          "name": "",
          "type": "address"
        }
      ],
      "name": "referralRewardCount",
      "outputs": [
        {
          "internalType": "uint256",
          "name": "",
          "type": "uint256"
        }
      ],
      "stateMutability": "view",
      "type": "function"
    },
    {
      "inputs": [
        {
          "internalType": "address",
          "name": "",
          "type": "address"
        }
      ],
      "name": "referrals",
      "outputs": [
        {
          "internalType": "uint256",
          "name": "totalRewards",
          "type": "uint256"
        },
        {
          "internalType": "uint256",
          "name": "availableRewards",
          "type": "uint256"
        },
        {
          "internalType": "uint256",
          "name": "referredCount",
          "type": "uint256"
        },
        {
          "internalType": "uint256",
          "name": "totalReferredVolume",
          "type": "uint256"
        },
        {
          "internalType": "uint256",
          "name": "totalWithdrawn",
          "type": "uint256"
        }
      ],
      "stateMutability": "view",
      "type": "function"
    },
    {
      "inputs": [
        {
          "internalType": "bool",
          "name": "_on",
          "type": "bool"
        },
        {
          "internalType": "address",
          "name": "_fundSource",
          "type": "address"
        }
      ],
      "name": "setGiveawayEnabled",
      "outputs": [],
      "stateMutability": "nonpayable",
      "type": "function"
    },
    {
      "inputs": [],
      "name": "totalActiveAmount",
      "outputs": [
        {
          "internalType": "uint256",
          "name": "",
          "type": "uint256"
        }
      ],
      "stateMutability": "view",
      "type": "function"
    },
    {
      "inputs": [],
      "name": "totalDeposited",
      "outputs": [
        {
          "internalType": "uint256",
          "name": "",
          "type": "uint256"
        }
      ],
      "stateMutability": "view",
      "type": "function"
    },
    {
      "inputs": [],
      "name": "totalPauseTime",
      "outputs": [
        {
          "internalType": "uint256",
          "name": "",
          "type": "uint256"
        }
      ],
      "stateMutability": "view",
      "type": "function"
    },
    {
      "inputs": [],
      "name": "totalReferralRewardsWithdrawn",
      "outputs": [
        {
          "internalType": "uint256",
          "name": "",
          "type": "uint256"
        }
      ],
      "stateMutability": "view",
      "type": "function"
    },
    {
      "inputs": [],
      "name": "totalRewardsWithdrawn",
      "outputs": [
        {
          "internalType": "uint256",
          "name": "",
          "type": "uint256"
        }
      ],
      "stateMutability": "view",
      "type": "function"
    },
    {
      "inputs": [],
      "name": "totalUsers",
      "outputs": [
        {
          "internalType": "uint256",
          "name": "",
          "type": "uint256"
        }
      ],
      "stateMutability": "view",
      "type": "function"
    },
    {
      "inputs": [
        {
          "internalType": "address",
          "name": "",
          "type": "address"
        }
      ],
      "name": "vaults",
      "outputs": [
        {
          "internalType": "uint256",
          "name": "totalDeposited",
          "type": "uint256"
        },
        {
          "internalType": "uint256",
          "name": "activeAmount",
          "type": "uint256"
        },
        {
          "internalType": "uint256",
          "name": "queuedAmount",
          "type": "uint256"
        },
        {
          "internalType": "uint256",
          "name": "queuedCycle",
          "type": "uint256"
        },
        {
          "internalType": "uint256",
          "name": "lastAccrualCycle",
          "type": "uint256"
        },
        {
          "internalType": "uint256",
          "name": "pendingRewards",
          "type": "uint256"
        },
        {
          "internalType": "uint256",
          "name": "totalRewardsWithdrawn",
          "type": "uint256"
        },
        {
          "internalType": "uint256",
          "name": "joinedCycle",
          "type": "uint256"
        }
      ],
      "stateMutability": "view",
      "type": "function"
    },
    {
      "inputs": [],
      "name": "withdrawReferralRewards",
      "outputs": [],
      "stateMutability": "nonpayable",
      "type": "function"
    },
    {
      "inputs": [],
      "name": "withdrawRewards",
      "outputs": [],
      "stateMutability": "nonpayable",
      "type": "function"
    }
  ],
  "bytecode": "0x60c060405234801561001057600080fd5b506040516128b33803806128b383398101604081905261002f91610225565b6001600160a01b03821661008a5760405162461bcd60e51b815260206004820152601460248201527f496e76616c69642055534454206164647265737300000000000000000000000060448201526064015b60405180910390fd5b6001600160a01b0381166100e05760405162461bcd60e51b815260206004820152601a60248201527f496e76616c6964206665652077616c6c657420616464726573730000000000006044820152606401610081565b3360a0526001600160a01b03828116608052600c80546001600160a01b0319169183169190911790556101116101d4565b600b819055506080516001600160a01b031663313ce5676040518163ffffffff1660e01b8152600401602060405180830381865afa158015610157573d6000803e3d6000fd5b505050506040513d601f19601f8201168201806040525081019061017b9190610258565b60ff166012146101cd5760405162461bcd60e51b815260206004820152601a60248201527f55534454206d757374206861766520313820646563696d616c730000000000006044820152606401610081565b50506102cb565b60006368659dd04210156101e85750600090565b620151806101fa6368659dd042610282565b61020491906102a9565b905090565b80516001600160a01b038116811461022057600080fd5b919050565b6000806040838503121561023857600080fd5b61024183610209565b915061024f60208401610209565b90509250929050565b60006020828403121561026a57600080fd5b815160ff8116811461027b57600080fd5b9392505050565b818103818111156102a357634e487b7160e01b600052601160045260246000fd5b92915050565b6000826102c657634e487b7160e01b600052601260045260246000fd5b500490565b60805160a05161254561036e60003960008181610373015281816106d101528181610ffb0152818161115b01526119190152600081816103360152818161052a0152818161095701528181610a2d01528181610e3d01528181610f26015281816111ff015281816112dd015281816113b50152818161155b0152818161163101528181611a2101528181611c2501528181611d1f0152611e2f01526125456000f3fe608060405234801561001057600080fd5b50600436106102695760003560e01c8063b8ccec1a11610151578063dd5967c3116100c3578063eb53e21411610087578063eb53e2141461065d578063f2380a0814610666578063f25f4b5614610679578063f5bfdd261461068c578063f5c3eb3614610695578063ff50abdc146106bd57600080fd5b8063dd5967c3146105a5578063df140a0c146105b6578063dfe6b5d6146105c9578063e1c8e97614610606578063e1e158a51461064d57600080fd5b8063c54e44eb11610115578063c54e44eb14610525578063c66855b41461054c578063c7b8981c1461055f578063c9d454b714610567578063cd421fbf14610592578063da748b101461059c57600080fd5b8063b8ccec1a146104ce578063bb5e5af2146104de578063be183e6a146104e6578063be26ed7f14610514578063bff1f9e11461051c57600080fd5b80635c975abb116101ea5780639216092e116101ae5780639216092e14610395578063978d83f2146103a85780639ca423b3146103b0578063a622ee7c14610416578063a98c1cfd146104a7578063b6b55f25146104bb57600080fd5b80635c975abb14610306578063736848561461032357806388aa05d31461032b5780638af3c40e146103345780638da5cb5b1461036e57600080fd5b806320c1ed1e1161023157806320c1ed1e146102c45780632799657d146102d75780633519a2f8146102e15780633b704eb9146102f45780634100ce4a146102fd57600080fd5b806307b36fa31461026e57806315982e1e146102835780631622829c146102965780631934c50a146102b45780631fb9f6fa146102bc575b600080fd5b61028161027c366004612150565b6106c6565b005b61028161029136600461217c565b610787565b6102a16368659dd081565b6040519081526020015b60405180910390f35b6102a1610d2e565b610281610d6e565b6102816102d236600461219f565b610ff0565b6102a162093a8081565b6102816102ef3660046121c9565b611150565b6102a1600b5481565b6102a160085481565b6000546103139060ff1681565b60405190151581526020016102ab565b6102a1601981565b6102a160095481565b7f00000000000000000000000000000000000000000000000000000000000000005b6040516001600160a01b0390911681526020016102ab565b6103567f000000000000000000000000000000000000000000000000000000000000000081565b600d54610356906001600160a01b031681565b6102a1600381565b6103ee6103be3660046121e2565b60046020819052600091825260409091208054600182015460028301546003840154939094015491939092909185565b604080519586526020860194909452928401919091526060830152608082015260a0016102ab565b61046c6104243660046121e2565b60036020528060005260406000206000915090508060000154908060010154908060020154908060030154908060040154908060050154908060060154908060070154905088565b604080519889526020890197909752958701949094526060860192909252608085015260a084015260c083015260e0820152610100016102ab565b600c5461031390600160a01b900460ff1681565b6102816104c93660046121c9565b611450565b6102a1680d8d726b7177a8000081565b6102a1600a81565b6104f96104f43660046121e2565b6117f2565b604080519384526020840192909252908201526060016102ab565b6102a16118d9565b6102a1600a5481565b6103567f000000000000000000000000000000000000000000000000000000000000000081565b61028161055a366004612215565b61190e565b610281611b25565b6102a1610575366004612241565b600560209081526000928352604080842090915290825290205481565b6102a16201518081565b6102a160015481565b6102a169152d02c7e14af680000081565b6102a16105c43660046121c9565b611df0565b6105d1611e13565b604080519788526020880196909652948601939093526060850191909152608084015260a083015260c082015260e0016102ab565b6103ee6106143660046121e2565b6001600160a01b031660009081526004602081905260409091208054600182015460028301546003840154939094015491949093929190565b6102a16802b5e3af16b188000081565b6102a160075481565b6105d16106743660046121e2565b611ee7565b600c54610356906001600160a01b031681565b6102a160025481565b6106a86106a3366004612241565b611fa2565b604080519283526020830191909152016102ab565b6102a160065481565b336001600160a01b037f000000000000000000000000000000000000000000000000000000000000000016146107175760405162461bcd60e51b815260040161070e9061225d565b60405180910390fd5b600c805460ff60a01b1916600160a01b84151590810291909117909155600d80546001600160a01b0319166001600160a01b0384161790556040519081527f95f35134611beab180e2265f228dbc6050a762f611b335bc1d16366913a19558906020015b60405180910390a15050565b816802b5e3af16b18800008110156107e15760405162461bcd60e51b815260206004820152601f60248201527f4465706f7369742062656c6f77206d696e696d756d2028353020555344542900604482015260640161070e565b69152d02c7e14af680000081111561080b5760405162461bcd60e51b815260040161070e9061229e565b60005460ff16801561081f57506001544210155b15610845576000805460ff191681556040516000805160206124f0833981519152908290a25b60005460ff16156108685760405162461bcd60e51b815260040161070e906122e4565b3361087281611ff0565b61087b81612098565b6001600160a01b038316331480159061089c57506001600160a01b03831615155b6108db5760405162461bcd60e51b815260206004820152601060248201526f24b73b30b634b2103932b332b93932b960811b604482015260640161070e565b6001600160a01b0383166000908152600360205260409020546109405760405162461bcd60e51b815260206004820152601c60248201527f5265666572726572206d75737420626520616374697665207573657200000000604482015260640161070e565b6040516323b872dd60e01b81526001600160a01b037f000000000000000000000000000000000000000000000000000000000000000016906323b872dd906109909033903090899060040161232f565b6020604051808303816000875af11580156109af573d6000803e3d6000fd5b505050506040513d601f19601f820116820180604052508101906109d39190612353565b6109ef5760405162461bcd60e51b815260040161070e90612370565b60006109fc6064866123b4565b90508015610ade57600c5460405163a9059cbb60e01b81526001600160a01b039182166004820152602481018390527f00000000000000000000000000000000000000000000000000000000000000009091169063a9059cbb906044016020604051808303816000875af1158015610a78573d6000803e3d6000fd5b505050506040513d601f19601f82011682018060405250810190610a9c9190612353565b610ade5760405162461bcd60e51b8152602060048201526013602482015272119959481d1c985b9cd9995c8819985a5b1959606a1b604482015260640161070e565b6000610aea82876123d6565b3360009081526003602052604081208054929350919003610b2857600a8054906000610b15836123e9565b9190505550610b226118d9565b60078201555b6000610b326118d9565b9050610b3d81611df0565b421115610b525780610b4e816123e9565b9150505b87826000016000828254610b669190612402565b9250508190555082826002016000828254610b819190612402565b909155505060038083018290556001600160a01b03881660009081526005602090815260408083203384529091529020541015610c695760006064610bc7600a8b612415565b610bd191906123b4565b6001600160a01b038916600090815260046020526040812080549293508392909190610bfe908490612402565b90915550506001600160a01b03881660009081526004602052604081206001018054839290610c2e908490612402565b90915550506001600160a01b03881660009081526005602090815260408083203384529091528120805491610c62836123e9565b9190505550505b6001600160a01b0387166000908152600460205260408120600201805491610c90836123e9565b90915550506001600160a01b038716600090815260046020526040812060030180548a9290610cc0908490612402565b925050819055508760066000828254610cd99190612402565b909155505060408051898152602081018390526001600160a01b0389169133917fc490a74c1058132dffb93944d555ddd1817ae53b7367ea1126ff123b1b134a58910160405180910390a35050505050505050565b600080610d396118d9565b90506000610d4b6105c4836001612402565b9050804210610d5d5760009250505090565b610d6742826123d6565b9250505090565b60005460ff168015610d8257506001544210155b15610da8576000805460ff191681556040516000805160206124f0833981519152908290a25b60005460ff1615610dcb5760405162461bcd60e51b815260040161070e906122e4565b3360009081526004602052604090206001810154610e215760405162461bcd60e51b81526020600482015260136024820152724e6f20726566657272616c207265776172647360681b604482015260640161070e565b60018101546040516370a0823160e01b815230600482015281907f00000000000000000000000000000000000000000000000000000000000000006001600160a01b0316906370a0823190602401602060405180830381865afa158015610e8c573d6000803e3d6000fd5b505050506040513d601f19601f82011682018060405250810190610eb0919061242c565b1015610ece5760405162461bcd60e51b815260040161070e90612445565b6000826001018190555080826004016000828254610eec9190612402565b925050819055508060086000828254610f059190612402565b909155505060405163a9059cbb60e01b8152336004820152602481018290527f00000000000000000000000000000000000000000000000000000000000000006001600160a01b03169063a9059cbb906044016020604051808303816000875af1158015610f77573d6000803e3d6000fd5b505050506040513d601f19601f82011682018060405250810190610f9b9190612353565b610fb75760405162461bcd60e51b815260040161070e90612370565b60405181815233907f996ae228123457779bb0d7cd6daa18e54006fe2f6dc172f12197d826b08dabcd9060200160405180910390a25050565b336001600160a01b037f000000000000000000000000000000000000000000000000000000000000000016146110385760405162461bcd60e51b815260040161070e9061225d565b60005460ff16801561104c57506001544210155b15611072576000805460ff191681556040516000805160206124f0833981519152908290a25b60005460ff16156110955760405162461bcd60e51b815260040161070e906122e4565b600081116110da5760405162461bcd60e51b81526020600482015260126024820152710416d6f756e74206d757374206265203e20360741b604482015260640161070e565b6001600160a01b038216600090815260036020526040812060058101805491928492611107908490612402565b90915550506040518281526001600160a01b038416907f091b901c2f1d7f881630e9a17aef7fe1b73e1d3dc96e362e776c153e7117f35f906020015b60405180910390a2505050565b336001600160a01b037f000000000000000000000000000000000000000000000000000000000000000016146111985760405162461bcd60e51b815260040161070e9061225d565b600081116111e85760405162461bcd60e51b815260206004820152601d60248201527f416d6f756e74206d7573742062652067726561746572207468616e2030000000604482015260640161070e565b6040516370a0823160e01b815233600482015281907f00000000000000000000000000000000000000000000000000000000000000006001600160a01b0316906370a0823190602401602060405180830381865afa15801561124e573d6000803e3d6000fd5b505050506040513d601f19601f82011682018060405250810190611272919061242c565b10156112c05760405162461bcd60e51b815260206004820152601960248201527f496e73756666696369656e7420555344542062616c616e636500000000000000604482015260640161070e565b604051636eb1769f60e11b815233600482015230602482015281907f00000000000000000000000000000000000000000000000000000000000000006001600160a01b03169063dd62ed3e90604401602060405180830381865afa15801561132c573d6000803e3d6000fd5b505050506040513d601f19601f82011682018060405250810190611350919061242c565b101561139e5760405162461bcd60e51b815260206004820152601b60248201527f496e73756666696369656e74205553445420616c6c6f77616e63650000000000604482015260640161070e565b6040516323b872dd60e01b81526001600160a01b037f000000000000000000000000000000000000000000000000000000000000000016906323b872dd906113ee9033903090869060040161232f565b6020604051808303816000875af115801561140d573d6000803e3d6000fd5b505050506040513d601f19601f820116820180604052508101906114319190612353565b61144d5760405162461bcd60e51b815260040161070e90612370565b50565b806802b5e3af16b18800008110156114aa5760405162461bcd60e51b815260206004820152601f60248201527f4465706f7369742062656c6f77206d696e696d756d2028353020555344542900604482015260640161070e565b69152d02c7e14af68000008111156114d45760405162461bcd60e51b815260040161070e9061229e565b60005460ff1680156114e857506001544210155b1561150e576000805460ff191681556040516000805160206124f0833981519152908290a25b60005460ff16156115315760405162461bcd60e51b815260040161070e906122e4565b3361153b81611ff0565b61154481612098565b6040516323b872dd60e01b81526001600160a01b037f000000000000000000000000000000000000000000000000000000000000000016906323b872dd906115949033903090889060040161232f565b6020604051808303816000875af11580156115b3573d6000803e3d6000fd5b505050506040513d601f19601f820116820180604052508101906115d79190612353565b6115f35760405162461bcd60e51b815260040161070e90612370565b60006116006064856123b4565b905080156116e257600c5460405163a9059cbb60e01b81526001600160a01b039182166004820152602481018390527f00000000000000000000000000000000000000000000000000000000000000009091169063a9059cbb906044016020604051808303816000875af115801561167c573d6000803e3d6000fd5b505050506040513d601f19601f820116820180604052508101906116a09190612353565b6116e25760405162461bcd60e51b8152602060048201526013602482015272119959481d1c985b9cd9995c8819985a5b1959606a1b604482015260640161070e565b60006116ee82866123d6565b336000908152600360205260408120805492935091900361172c57600a8054906000611719836123e9565b91905055506117266118d9565b60078201555b60006117366118d9565b905061174181611df0565b4211156117565780611752816123e9565b9150505b8682600001600082825461176a9190612402565b92505081905550828260020160008282546117859190612402565b909155505060038201819055600680548891906000906117a6908490612402565b9091555050604080518881526020810183905260009133917fc490a74c1058132dffb93944d555ddd1817ae53b7367ea1126ff123b1b134a58910160405180910390a350505050505050565b6001600160a01b03811660009081526003602090815260408083206004909252822081546005830154909392839290918361182b6118d9565b9050836004015481111561187e576103e884600401548261184c91906123d6565b6019866001015461185d9190612415565b6118679190612415565b61187191906123b4565b61187b9083612402565b91505b826001015482846004015486600601546118989190612402565b6118a29190612402565b6118ac9190612402565b955086156118ce57866118c187612710612415565b6118cb91906123b4565b94505b505050509193909250565b60006368659dd04210156118ed5750600090565b620151806118ff6368659dd0426123d6565b61190991906123b4565b905090565b336001600160a01b037f000000000000000000000000000000000000000000000000000000000000000016146119565760405162461bcd60e51b815260040161070e9061225d565b600c54600160a01b900460ff166119af5760405162461bcd60e51b815260206004820152601760248201527f4769766561776179206e6f742079657420616374697665000000000000000000604482015260640161070e565b60005b6003811015611af15760008282600381106119cf576119cf612487565b6020020135118015611a0f575060008382600381106119f0576119f0612487565b602002016020810190611a0391906121e2565b6001600160a01b031614155b15611ae957600d546001600160a01b037f00000000000000000000000000000000000000000000000000000000000000008116916323b872dd9116858460038110611a5c57611a5c612487565b602002016020810190611a6f91906121e2565b858560038110611a8157611a81612487565b60200201356040518463ffffffff1660e01b8152600401611aa49392919061232f565b6020604051808303816000875af1158015611ac3573d6000803e3d6000fd5b505050506040513d601f19601f82011682018060405250810190611ae79190612353565b505b6001016119b2565b507fd5e1c7c1f36ea0d607c2fd1be1265b026de8598ac1b26f781d2364fe7754660882824260405161077b9392919061249d565b60005460ff168015611b3957506001544210155b15611b5f576000805460ff191681556040516000805160206124f0833981519152908290a25b60005460ff1615611b825760405162461bcd60e51b815260040161070e906122e4565b33611b8c81611ff0565b611b9581612098565b3360009081526003602052604090206005810154611bec5760405162461bcd60e51b81526020600482015260146024820152734e6f207265776172647320617661696c61626c6560601b604482015260640161070e565b6005810154680d8d726b7177a80000811115611c0e5750680d8d726b7177a800005b6040516370a0823160e01b815230600482015281907f00000000000000000000000000000000000000000000000000000000000000006001600160a01b0316906370a0823190602401602060405180830381865afa158015611c74573d6000803e3d6000fd5b505050506040513d601f19601f82011682018060405250810190611c98919061242c565b1015611cb65760405162461bcd60e51b815260040161070e90612445565b80826005016000828254611cca91906123d6565b9250508190555080826006016000828254611ce59190612402565b925050819055508060076000828254611cfe9190612402565b909155505060405163a9059cbb60e01b8152336004820152602481018290527f00000000000000000000000000000000000000000000000000000000000000006001600160a01b03169063a9059cbb906044016020604051808303816000875af1158015611d70573d6000803e3d6000fd5b505050506040513d601f19601f82011682018060405250810190611d949190612353565b611db05760405162461bcd60e51b815260040161070e90612370565b337ffa73d3ab3a92ed3f2b694757d8e4b2f3c293654b11b9c79111f8971f861b22b282611ddb6118d9565b60408051928352602083019190915201611143565b6000611dff6201518083612415565b611e0d906368659dd0612402565b92915050565b6000806000806000806000600654600754600854600954600a547f00000000000000000000000000000000000000000000000000000000000000006001600160a01b03166370a08231306040518263ffffffff1660e01b8152600401611e8891906001600160a01b0391909116815260200190565b602060405180830381865afa158015611ea5573d6000803e3d6000fd5b505050506040513d601f19601f82011682018060405250810190611ec9919061242c565b611ed16118d9565b959d949c50929a50909850965094509092509050565b6001600160a01b0381166000908152600360205260408120600581015482918291829182918291829182611f196118d9565b90508260040154811115611f6c576103e8836004015482611f3a91906123d6565b60198560010154611f4b9190612415565b611f559190612415565b611f5f91906123b4565b611f699083612402565b91505b5081546001830154600284015460068501546004860154600790960154939e929d50909b50929950919750919550909350915050565b6001600160a01b038083166000908152600560209081526040808320938516835292905290812054906003821015611fe457611fdf8260036123d6565b611fe7565b60005b90509250929050565b6001600160a01b0381166000908152600360205260408120906120116118d9565b905081600401548111801561202a575060008260010154115b1561209357600082600401548261204191906123d6565b905060006103e8826019866001015461205a9190612415565b6120649190612415565b61206e91906123b4565b9050808460050160008282546120849190612402565b90915550505050600482018190555b505050565b6001600160a01b0381166000908152600360205260408120906120b96118d9565b9050600082600201541180156120d3575080826003015411155b156120935760028201546001830180548291906000906120f4908490612402565b9091555050600060028401819055600384018190556009805483929061211b908490612402565b909155505050505050565b801515811461144d57600080fd5b80356001600160a01b038116811461214b57600080fd5b919050565b6000806040838503121561216357600080fd5b823561216e81612126565b9150611fe760208401612134565b6000806040838503121561218f57600080fd5b82359150611fe760208401612134565b600080604083850312156121b257600080fd5b6121bb83612134565b946020939093013593505050565b6000602082840312156121db57600080fd5b5035919050565b6000602082840312156121f457600080fd5b6121fd82612134565b9392505050565b8060608101831015611e0d57600080fd5b60008060c0838503121561222857600080fd5b6122328484612204565b9150611fe78460608501612204565b6000806040838503121561225457600080fd5b61216e83612134565b60208082526021908201527f4f6e6c79206f776e65722063616e2063616c6c20746869732066756e6374696f6040820152603760f91b606082015260800190565b60208082526026908201527f4465706f7369742065786365656473206d6178696d756d20283130302c30303060408201526520555344542960d01b606082015260800190565b6020808252602b908201527f436f6e74726163742069732074656d706f726172696c7920706175736564206660408201526a6f7220736563757269747960a81b606082015260800190565b6001600160a01b039384168152919092166020820152604081019190915260600190565b60006020828403121561236557600080fd5b81516121fd81612126565b6020808252601490820152731554d115081d1c985b9cd9995c8819985a5b195960621b604082015260600190565b634e487b7160e01b600052601160045260246000fd5b6000826123d157634e487b7160e01b600052601260045260246000fd5b500490565b81810381811115611e0d57611e0d61239e565b6000600182016123fb576123fb61239e565b5060010190565b80820180821115611e0d57611e0d61239e565b8082028115828204841417611e0d57611e0d61239e565b60006020828403121561243e57600080fd5b5051919050565b60208082526022908201527f496e73756666696369656e7420636f6e747261637420555344542062616c616e604082015261636560f01b606082015260800190565b634e487b7160e01b600052603260045260246000fd5b60e08101818560005b60038110156124d6576001600160a01b036124c083612134565b16835260209283019291909101906001016124a6565b50505060608460608401378260c083015294935050505056fef5cbf596165cc457b2cd92e8d8450827ee314968160a5696402d75766fc52cafa2646970667358221220a47789688e9b2db95a472267556822456ee9f15909fa94d1a26cccf20f63cf3c64736f6c634300081c0033",
  "linkReferences": {},
  "deployedLinkReferences": {}
}