{
  "_format": "hh-sol-artifact-1",
  "contractName": "BlackVaultV2",
  "sourceName": "contracts/BlackVault.sol",
  "abi": [
    {
      "inputs": [
        {
          "internalType": "address",
          "name": "_usdtAddress",
          "type": "address"
        },
        {
          "internalType": "address",
          "name": "_feeWallet",
          "type": "address"
        }
      ],
      "stateMutability": "nonpayable",
      "type": "constructor"
    },
    {
      "anonymous": false,
      "inputs": [
        {
          "indexed": true,
          "internalType": "address",
          "name": "user",
          "type": "address"
        },
        {
          "indexed": false,
          "internalType": "uint256",
          "name": "queuedAmount",
          "type": "uint256"
        },
        {
          "indexed": false,
          "internalType": "uint256",
          "name": "queuedCycle",
          "type": "uint256"
        },
        {
          "indexed": false,
          "internalType": "uint256",
          "name": "currCycle",
          "type": "uint256"
        },
        {
          "indexed": false,
          "internalType": "bool",
          "name": "activated",
          "type": "bool"
        }
      ],
      "name": "DebugActivateQueued",
      "type": "event"
    },
    {
      "anonymous": false,
      "inputs": [
        {
          "indexed": true,
          "internalType": "address",
          "name": "user",
          "type": "address"
        },
        {
          "indexed": false,
          "internalType": "uint256",
          "name": "amount",
          "type": "uint256"
        },
        {
          "indexed": true,
          "internalType": "address",
          "name": "referrer",
          "type": "address"
        },
        {
          "indexed": false,
          "internalType": "uint256",
          "name": "cycle",
          "type": "uint256"
        }
      ],
      "name": "Deposited",
      "type": "event"
    },
    {
      "anonymous": false,
      "inputs": [
        {
          "indexed": true,
          "internalType": "address",
          "name": "by",
          "type": "address"
        },
        {
          "indexed": false,
          "internalType": "uint256",
          "name": "pausedUntil",
          "type": "uint256"
        },
        {
          "indexed": false,
          "internalType": "string",
          "name": "reason",
          "type": "string"
        }
      ],
      "name": "EmergencyPaused",
      "type": "event"
    },
    {
      "anonymous": false,
      "inputs": [
        {
          "indexed": true,
          "internalType": "address",
          "name": "user",
          "type": "address"
        },
        {
          "indexed": false,
          "internalType": "uint256",
          "name": "amount",
          "type": "uint256"
        }
      ],
      "name": "EmergencyRewarded",
      "type": "event"
    },
    {
      "anonymous": false,
      "inputs": [
        {
          "indexed": true,
          "internalType": "address",
          "name": "by",
          "type": "address"
        }
      ],
      "name": "EmergencyUnpaused",
      "type": "event"
    },
    {
      "anonymous": false,
      "inputs": [
        {
          "indexed": false,
          "internalType": "bool",
          "name": "enabled",
          "type": "bool"
        }
      ],
      "name": "GiveawayEnabled",
      "type": "event"
    },
    {
      "anonymous": false,
      "inputs": [
        {
          "indexed": true,
          "internalType": "address",
          "name": "user",
          "type": "address"
        },
        {
          "indexed": false,
          "internalType": "uint256",
          "name": "amount",
          "type": "uint256"
        }
      ],
      "name": "ReferralRewardsWithdrawn",
      "type": "event"
    },
    {
      "anonymous": false,
      "inputs": [
        {
          "indexed": true,
          "internalType": "address",
          "name": "user",
          "type": "address"
        },
        {
          "indexed": false,
          "internalType": "uint256",
          "name": "amount",
          "type": "uint256"
        },
        {
          "indexed": false,
          "internalType": "uint256",
          "name": "cycle",
          "type": "uint256"
        }
      ],
      "name": "RewardsWithdrawn",
      "type": "event"
    },
    {
      "anonymous": false,
      "inputs": [
        {
          "indexed": false,
          "internalType": "address[3]",
          "name": "winners",
          "type": "address[3]"
        },
        {
          "indexed": false,
          "internalType": "uint256[3]",
          "name": "amounts",
          "type": "uint256[3]"
        },
        {
          "indexed": false,
          "internalType": "uint256",
          "name": "timestamp",
          "type": "uint256"
        }
      ],
      "name": "WeeklyPrizesDistributed",
      "type": "event"
    },
    {
      "inputs": [],
      "name": "CYCLE_DURATION",
      "outputs": [
        {
          "internalType": "uint256",
          "name": "",
          "type": "uint256"
        }
      ],
      "stateMutability": "view",
      "type": "function"
    },
    {
      "inputs": [],
      "name": "CYCLE_START_TIME",
      "outputs": [
        {
          "internalType": "uint256",
          "name": "",
          "type": "uint256"
        }
      ],
      "stateMutability": "view",
      "type": "function"
    },
    {
      "inputs": [],
      "name": "DAILY_RATE",
      "outputs": [
        {
          "internalType": "uint256",
          "name": "",
          "type": "uint256"
        }
      ],
      "stateMutability": "view",
      "type": "function"
    },
    {
      "inputs": [],
      "name": "MAX_DEPOSIT",
      "outputs": [
        {
          "internalType": "uint256",
          "name": "",
          "type": "uint256"
        }
      ],
      "stateMutability": "view",
      "type": "function"
    },
    {
      "inputs": [],
      "name": "MAX_PAUSE_DURATION",
      "outputs": [
        {
          "internalType": "uint256",
          "name": "",
          "type": "uint256"
        }
      ],
      "stateMutability": "view",
      "type": "function"
    },
    {
      "inputs": [],
      "name": "MAX_REFERRAL_REWARDS_PER_REFEREE",
      "outputs": [
        {
          "internalType": "uint256",
          "name": "",
          "type": "uint256"
        }
      ],
      "stateMutability": "view",
      "type": "function"
    },
    {
      "inputs": [],
      "name": "MAX_WITHDRAWAL_PER_CYCLE",
      "outputs": [
        {
          "internalType": "uint256",
          "name": "",
          "type": "uint256"
        }
      ],
      "stateMutability": "view",
      "type": "function"
    },
    {
      "inputs": [],
      "name": "MIN_DEPOSIT",
      "outputs": [
        {
          "internalType": "uint256",
          "name": "",
          "type": "uint256"
        }
      ],
      "stateMutability": "view",
      "type": "function"
    },
    {
      "inputs": [],
      "name": "REFERRAL_REWARD_PERCENT",
      "outputs": [
        {
          "internalType": "uint256",
          "name": "",
          "type": "uint256"
        }
      ],
      "stateMutability": "view",
      "type": "function"
    },
    {
      "inputs": [],
      "name": "USDT",
      "outputs": [
        {
          "internalType": "contract IERC20",
          "name": "",
          "type": "address"
        }
      ],
      "stateMutability": "view",
      "type": "function"
    },
    {
      "inputs": [],
      "name": "contractLaunchCycle",
      "outputs": [
        {
          "internalType": "uint256",
          "name": "",
          "type": "uint256"
        }
      ],
      "stateMutability": "view",
      "type": "function"
    },
    {
      "inputs": [
        {
          "internalType": "uint256",
          "name": "amount",
          "type": "uint256"
        }
      ],
      "name": "deposit",
      "outputs": [],
      "stateMutability": "nonpayable",
      "type": "function"
    },
    {
      "inputs": [
        {
          "internalType": "uint256",
          "name": "amount",
          "type": "uint256"
        },
        {
          "internalType": "address",
          "name": "referrer",
          "type": "address"
        }
      ],
      "name": "depositWithReferrer",
      "outputs": [],
      "stateMutability": "nonpayable",
      "type": "function"
    },
    {
      "inputs": [
        {
          "internalType": "address[3]",
          "name": "winners",
          "type": "address[3]"
        },
        {
          "internalType": "uint256[3]",
          "name": "amounts",
          "type": "uint256[3]"
        }
      ],
      "name": "distributeWeeklyPrizes",
      "outputs": [],
      "stateMutability": "nonpayable",
      "type": "function"
    },
    {
      "inputs": [
        {
          "internalType": "address",
          "name": "user",
          "type": "address"
        },
        {
          "internalType": "uint256",
          "name": "amount",
          "type": "uint256"
        }
      ],
      "name": "emergencyReward",
      "outputs": [],
      "stateMutability": "nonpayable",
      "type": "function"
    },
    {
      "inputs": [],
      "name": "feeWallet",
      "outputs": [
        {
          "internalType": "address",
          "name": "",
          "type": "address"
        }
      ],
      "stateMutability": "view",
      "type": "function"
    },
    {
      "inputs": [
        {
          "internalType": "uint256",
          "name": "amount",
          "type": "uint256"
        }
      ],
      "name": "fundContract",
      "outputs": [],
      "stateMutability": "nonpayable",
      "type": "function"
    },
    {
      "inputs": [],
      "name": "getContractStats",
      "outputs": [
        {
          "internalType": "uint256",
          "name": "_totalDep",
          "type": "uint256"
        },
        {
          "internalType": "uint256",
          "name": "_rewardsWithdrawn",
          "type": "uint256"
        },
        {
          "internalType": "uint256",
          "name": "_refRewardsWithdrawn",
          "type": "uint256"
        },
        {
          "internalType": "uint256",
          "name": "_activeAmt",
          "type": "uint256"
        },
        {
          "internalType": "uint256",
          "name": "_users",
          "type": "uint256"
        },
        {
          "internalType": "uint256",
          "name": "_balance",
          "type": "uint256"
        },
        {
          "internalType": "uint256",
          "name": "_currCycle",
          "type": "uint256"
        }
      ],
      "stateMutability": "view",
      "type": "function"
    },
    {
      "inputs": [],
      "name": "getCurrentCycle",
      "outputs": [
        {
          "internalType": "uint256",
          "name": "",
          "type": "uint256"
        }
      ],
      "stateMutability": "view",
      "type": "function"
    },
    {
      "inputs": [
        {
          "internalType": "uint256",
          "name": "cycle",
          "type": "uint256"
        }
      ],
      "name": "getCycleStartTime",
      "outputs": [
        {
          "internalType": "uint256",
          "name": "",
          "type": "uint256"
        }
      ],
      "stateMutability": "pure",
      "type": "function"
    },
    {
      "inputs": [
        {
          "internalType": "address",
          "name": "referrer",
          "type": "address"
        },
        {
          "internalType": "address",
          "name": "referee",
          "type": "address"
        }
      ],
      "name": "getReferralBonusInfo",
      "outputs": [
        {
          "internalType": "uint256",
          "name": "used",
          "type": "uint256"
        },
        {
          "internalType": "uint256",
          "name": "remaining",
          "type": "uint256"
        }
      ],
      "stateMutability": "view",
      "type": "function"
    },
    {
      "inputs": [],
      "name": "getTimeUntilNextCycle",
      "outputs": [
        {
          "internalType": "uint256",
          "name": "",
          "type": "uint256"
        }
      ],
      "stateMutability": "view",
      "type": "function"
    },
    {
      "inputs": [],
      "name": "getUSDTAddress",
      "outputs": [
        {
          "internalType": "address",
          "name": "",
          "type": "address"
        }
      ],
      "stateMutability": "view",
      "type": "function"
    },
    {
      "inputs": [
        {
          "internalType": "address",
          "name": "user",
          "type": "address"
        }
      ],
      "name": "getUserROI",
      "outputs": [
        {
          "internalType": "uint256",
          "name": "invested",
          "type": "uint256"
        },
        {
          "internalType": "uint256",
          "name": "earned",
          "type": "uint256"
        },
        {
          "internalType": "uint256",
          "name": "roiBP",
          "type": "uint256"
        }
      ],
      "stateMutability": "view",
      "type": "function"
    },
    {
      "inputs": [
        {
          "internalType": "address",
          "name": "user",
          "type": "address"
        }
      ],
      "name": "getUserReferralData",
      "outputs": [
        {
          "internalType": "uint256",
          "name": "totalRewards",
          "type": "uint256"
        },
        {
          "internalType": "uint256",
          "name": "availableRewards",
          "type": "uint256"
        },
        {
          "internalType": "uint256",
          "name": "referredCount",
          "type": "uint256"
        },
        {
          "internalType": "uint256",
          "name": "totalVolume",
          "type": "uint256"
        },
        {
          "internalType": "uint256",
          "name": "totalWithdrawn",
          "type": "uint256"
        }
      ],
      "stateMutability": "view",
      "type": "function"
    },
    {
      "inputs": [
        {
          "internalType": "address",
          "name": "user",
          "type": "address"
        }
      ],
      "name": "getUserVault",
      "outputs": [
        {
          "internalType": "uint256",
          "name": "totalDeposited",
          "type": "uint256"
        },
        {
          "internalType": "uint256",
          "name": "activeAmount",
          "type": "uint256"
        },
        {
          "internalType": "uint256",
          "name": "queuedAmount",
          "type": "uint256"
        },
        {
          "internalType": "uint256",
          "name": "queuedCycle",
          "type": "uint256"
        },
        {
          "internalType": "uint256",
          "name": "lastAccrualCycle",
          "type": "uint256"
        },
        {
          "internalType": "uint256",
          "name": "activeAmountActivationCycle",
          "type": "uint256"
        },
        {
          "internalType": "uint256",
          "name": "pendingRewards",
          "type": "uint256"
        },
        {
          "internalType": "uint256",
          "name": "totalRewardsWithdrawn",
          "type": "uint256"
        },
        {
          "internalType": "uint256",
          "name": "joinedCycle",
          "type": "uint256"
        }
      ],
      "stateMutability": "view",
      "type": "function"
    },
    {
      "inputs": [],
      "name": "giveawayEnabled",
      "outputs": [
        {
          "internalType": "bool",
          "name": "",
          "type": "bool"
        }
      ],
      "stateMutability": "view",
      "type": "function"
    },
    {
      "inputs": [],
      "name": "giveawayFundSource",
      "outputs": [
        {
          "internalType": "address",
          "name": "",
          "type": "address"
        }
      ],
      "stateMutability": "view",
      "type": "function"
    },
    {
      "inputs": [],
      "name": "owner",
      "outputs": [
        {
          "internalType": "address",
          "name": "",
          "type": "address"
        }
      ],
      "stateMutability": "view",
      "type": "function"
    },
    {
      "inputs": [],
      "name": "paused",
      "outputs": [
        {
          "internalType": "bool",
          "name": "",
          "type": "bool"
        }
      ],
      "stateMutability": "view",
      "type": "function"
    },
    {
      "inputs": [],
      "name": "pausedUntil",
      "outputs": [
        {
          "internalType": "uint256",
          "name": "",
          "type": "uint256"
        }
      ],
      "stateMutability": "view",
      "type": "function"
    },
    {
      "inputs": [],
      "name": "poke",
      "outputs": [],
      "stateMutability": "nonpayable",
      "type": "function"
    },
    {
      "inputs": [
        {
          "internalType": "address",
          "name": "",
          "type": "address"
        },
        {
          "internalType": "address",
          "name": "",
          "type": "address"
        }
      ],
      "name": "referralRewardCount",
      "outputs": [
        {
          "internalType": "uint256",
          "name": "",
          "type": "uint256"
        }
      ],
      "stateMutability": "view",
      "type": "function"
    },
    {
      "inputs": [
        {
          "internalType": "address",
          "name": "",
          "type": "address"
        }
      ],
      "name": "referrals",
      "outputs": [
        {
          "internalType": "uint256",
          "name": "totalRewards",
          "type": "uint256"
        },
        {
          "internalType": "uint256",
          "name": "availableRewards",
          "type": "uint256"
        },
        {
          "internalType": "uint256",
          "name": "referredCount",
          "type": "uint256"
        },
        {
          "internalType": "uint256",
          "name": "totalReferredVolume",
          "type": "uint256"
        },
        {
          "internalType": "uint256",
          "name": "totalWithdrawn",
          "type": "uint256"
        }
      ],
      "stateMutability": "view",
      "type": "function"
    },
    {
      "inputs": [
        {
          "internalType": "bool",
          "name": "_on",
          "type": "bool"
        },
        {
          "internalType": "address",
          "name": "_fundSource",
          "type": "address"
        }
      ],
      "name": "setGiveawayEnabled",
      "outputs": [],
      "stateMutability": "nonpayable",
      "type": "function"
    },
    {
      "inputs": [],
      "name": "totalActiveAmount",
      "outputs": [
        {
          "internalType": "uint256",
          "name": "",
          "type": "uint256"
        }
      ],
      "stateMutability": "view",
      "type": "function"
    },
    {
      "inputs": [],
      "name": "totalDeposited",
      "outputs": [
        {
          "internalType": "uint256",
          "name": "",
          "type": "uint256"
        }
      ],
      "stateMutability": "view",
      "type": "function"
    },
    {
      "inputs": [],
      "name": "totalPauseTime",
      "outputs": [
        {
          "internalType": "uint256",
          "name": "",
          "type": "uint256"
        }
      ],
      "stateMutability": "view",
      "type": "function"
    },
    {
      "inputs": [],
      "name": "totalReferralRewardsWithdrawn",
      "outputs": [
        {
          "internalType": "uint256",
          "name": "",
          "type": "uint256"
        }
      ],
      "stateMutability": "view",
      "type": "function"
    },
    {
      "inputs": [],
      "name": "totalRewardsWithdrawn",
      "outputs": [
        {
          "internalType": "uint256",
          "name": "",
          "type": "uint256"
        }
      ],
      "stateMutability": "view",
      "type": "function"
    },
    {
      "inputs": [],
      "name": "totalUsers",
      "outputs": [
        {
          "internalType": "uint256",
          "name": "",
          "type": "uint256"
        }
      ],
      "stateMutability": "view",
      "type": "function"
    },
    {
      "inputs": [
        {
          "internalType": "address",
          "name": "",
          "type": "address"
        }
      ],
      "name": "vaults",
      "outputs": [
        {
          "internalType": "uint256",
          "name": "totalDeposited",
          "type": "uint256"
        },
        {
          "internalType": "uint256",
          "name": "activeAmount",
          "type": "uint256"
        },
        {
          "internalType": "uint256",
          "name": "queuedAmount",
          "type": "uint256"
        },
        {
          "internalType": "uint256",
          "name": "queuedCycle",
          "type": "uint256"
        },
        {
          "internalType": "uint256",
          "name": "lastAccrualCycle",
          "type": "uint256"
        },
        {
          "internalType": "uint256",
          "name": "activeAmountActivationCycle",
          "type": "uint256"
        },
        {
          "internalType": "uint256",
          "name": "pendingRewards",
          "type": "uint256"
        },
        {
          "internalType": "uint256",
          "name": "totalRewardsWithdrawn",
          "type": "uint256"
        },
        {
          "internalType": "uint256",
          "name": "joinedCycle",
          "type": "uint256"
        }
      ],
      "stateMutability": "view",
      "type": "function"
    },
    {
      "inputs": [],
      "name": "withdrawReferralRewards",
      "outputs": [],
      "stateMutability": "nonpayable",
      "type": "function"
    },
    {
      "inputs": [],
      "name": "withdrawRewards",
      "outputs": [],
      "stateMutability": "nonpayable",
      "type": "function"
    }
  ],
  "bytecode": "0x60c060405234801561001057600080fd5b5060405161290e38038061290e83398101604081905261002f91610225565b6001600160a01b03821661008a5760405162461bcd60e51b815260206004820152601460248201527f496e76616c69642055534454206164647265737300000000000000000000000060448201526064015b60405180910390fd5b6001600160a01b0381166100e05760405162461bcd60e51b815260206004820152601a60248201527f496e76616c6964206665652077616c6c657420616464726573730000000000006044820152606401610081565b3360a0526001600160a01b03828116608052600c80546001600160a01b0319169183169190911790556101116101d4565b600b819055506080516001600160a01b031663313ce5676040518163ffffffff1660e01b8152600401602060405180830381865afa158015610157573d6000803e3d6000fd5b505050506040513d601f19601f8201168201806040525081019061017b9190610258565b60ff166012146101cd5760405162461bcd60e51b815260206004820152601a60248201527f55534454206d757374206861766520313820646563696d616c730000000000006044820152606401610081565b50506102cb565b60006368659dd04210156101e85750600090565b620151806101fa6368659dd042610282565b61020491906102a9565b905090565b80516001600160a01b038116811461022057600080fd5b919050565b6000806040838503121561023857600080fd5b61024183610209565b915061024f60208401610209565b90509250929050565b60006020828403121561026a57600080fd5b815160ff8116811461027b57600080fd5b9392505050565b818103818111156102a357634e487b7160e01b600052601160045260246000fd5b92915050565b6000826102c657634e487b7160e01b600052601260045260246000fd5b500490565b60805160a0516125a061036e600039600081816103860152818161074301528181611089015281816111e901526119aa0152600081816103490152818161054c015281816109c901528181610a9f01528181610ecb01528181610fb40152818161128d0152818161136b01528181611443015281816115e6015281816116bc01528181611ab201528181611cb601528181611db00152611ec001526125a06000f3fe608060405234801561001057600080fd5b50600436106102745760003560e01c8063b8ccec1a11610151578063dd5967c3116100c3578063eb53e21411610087578063eb53e2141461067f578063f2380a0814610688578063f25f4b56146106eb578063f5bfdd26146106fe578063f5c3eb3614610707578063ff50abdc1461072f57600080fd5b8063dd5967c3146105c7578063df140a0c146105d8578063dfe6b5d6146105eb578063e1c8e97614610628578063e1e158a51461066f57600080fd5b8063c54e44eb11610115578063c54e44eb14610547578063c66855b41461056e578063c7b8981c14610581578063c9d454b714610589578063cd421fbf146105b4578063da748b10146105be57600080fd5b8063b8ccec1a146104f0578063bb5e5af214610500578063be183e6a14610508578063be26ed7f14610536578063bff1f9e11461053e57600080fd5b80635c975abb116101ea5780639216092e116101ae5780639216092e146103a8578063978d83f2146103bb5780639ca423b3146103c3578063a622ee7c14610429578063a98c1cfd146104c9578063b6b55f25146104dd57600080fd5b80635c975abb14610319578063736848561461033657806388aa05d31461033e5780638af3c40e146103475780638da5cb5b1461038157600080fd5b80631fb9f6fa1161023c5780631fb9f6fa146102cf57806320c1ed1e146102d75780632799657d146102ea5780633519a2f8146102f45780633b704eb9146103075780634100ce4a1461031057600080fd5b806307b36fa31461027957806315982e1e1461028e5780631622829c146102a157806318178358146102bf5780631934c50a146102c7575b600080fd5b61028c6102873660046121ab565b610738565b005b61028c61029c3660046121d7565b6107f9565b6102ac6368659dd081565b6040519081526020015b60405180910390f35b61028c610da6565b6102ac610dbc565b61028c610dfc565b61028c6102e53660046121fa565b61107e565b6102ac62093a8081565b61028c610302366004612224565b6111de565b6102ac600b5481565b6102ac60085481565b6000546103269060ff1681565b60405190151581526020016102b6565b6102ac601981565b6102ac60095481565b7f00000000000000000000000000000000000000000000000000000000000000005b6040516001600160a01b0390911681526020016102b6565b6103697f000000000000000000000000000000000000000000000000000000000000000081565b600d54610369906001600160a01b031681565b6102ac600381565b6104016103d136600461223d565b60046020819052600091825260409091208054600182015460028301546003840154939094015491939092909185565b604080519586526020860194909452928401919091526060830152608082015260a0016102b6565b61048561043736600461223d565b60036020528060005260406000206000915090508060000154908060010154908060020154908060030154908060040154908060050154908060060154908060070154908060080154905089565b60408051998a5260208a0198909852968801959095526060870193909352608086019190915260a085015260c084015260e0830152610100820152610120016102b6565b600c5461032690600160a01b900460ff1681565b61028c6104eb366004612224565b6114db565b6102ac680d8d726b7177a8000081565b6102ac600a81565b61051b61051636600461223d565b611883565b604080519384526020840192909252908201526060016102b6565b6102ac61196a565b6102ac600a5481565b6103697f000000000000000000000000000000000000000000000000000000000000000081565b61028c61057c366004612270565b61199f565b61028c611bb6565b6102ac61059736600461229c565b600560209081526000928352604080842090915290825290205481565b6102ac6201518081565b6102ac60015481565b6102ac69152d02c7e14af680000081565b6102ac6105e6366004612224565b611e81565b6105f3611ea4565b604080519788526020880196909652948601939093526060850191909152608084015260a083015260c082015260e0016102b6565b61040161063636600461223d565b6001600160a01b031660009081526004602081905260409091208054600182015460028301546003840154939094015491949093929190565b6102ac6802b5e3af16b188000081565b6102ac60075481565b61048561069636600461223d565b6001600160a01b03166000908152600360208190526040909120805460018201546002830154938301546004840154600585015460068601546007870154600890970154959894979693959294919390929091565b600c54610369906001600160a01b031681565b6102ac60025481565b61071a61071536600461229c565b611f78565b604080519283526020830191909152016102b6565b6102ac60065481565b336001600160a01b037f000000000000000000000000000000000000000000000000000000000000000016146107895760405162461bcd60e51b8152600401610780906122b8565b60405180910390fd5b600c805460ff60a01b1916600160a01b84151590810291909117909155600d80546001600160a01b0319166001600160a01b0384161790556040519081527f95f35134611beab180e2265f228dbc6050a762f611b335bc1d16366913a19558906020015b60405180910390a15050565b816802b5e3af16b18800008110156108535760405162461bcd60e51b815260206004820152601f60248201527f4465706f7369742062656c6f77206d696e696d756d20283530205553445429006044820152606401610780565b69152d02c7e14af680000081111561087d5760405162461bcd60e51b8152600401610780906122f9565b60005460ff16801561089157506001544210155b156108b7576000805460ff1916815560405160008051602061254b833981519152908290a25b60005460ff16156108da5760405162461bcd60e51b81526004016107809061233f565b336108e481611fc6565b6108ed816120bf565b6001600160a01b038316331480159061090e57506001600160a01b03831615155b61094d5760405162461bcd60e51b815260206004820152601060248201526f24b73b30b634b2103932b332b93932b960811b6044820152606401610780565b6001600160a01b0383166000908152600360205260409020546109b25760405162461bcd60e51b815260206004820152601c60248201527f5265666572726572206d757374206265206163746976652075736572000000006044820152606401610780565b6040516323b872dd60e01b81526001600160a01b037f000000000000000000000000000000000000000000000000000000000000000016906323b872dd90610a029033903090899060040161238a565b6020604051808303816000875af1158015610a21573d6000803e3d6000fd5b505050506040513d601f19601f82011682018060405250810190610a4591906123ae565b610a615760405162461bcd60e51b8152600401610780906123cb565b6000610a6e60648661240f565b90508015610b5057600c5460405163a9059cbb60e01b81526001600160a01b039182166004820152602481018390527f00000000000000000000000000000000000000000000000000000000000000009091169063a9059cbb906044016020604051808303816000875af1158015610aea573d6000803e3d6000fd5b505050506040513d601f19601f82011682018060405250810190610b0e91906123ae565b610b505760405162461bcd60e51b8152602060048201526013602482015272119959481d1c985b9cd9995c8819985a5b1959606a1b6044820152606401610780565b6000610b5c8287612431565b3360009081526003602052604081208054929350919003610b9a57600a8054906000610b8783612444565b9190505550610b9461196a565b60088201555b6000610ba461196a565b610baf90600161245d565b905087826000016000828254610bc5919061245d565b9250508190555082826002016000828254610be0919061245d565b909155505060038083018290556001600160a01b03881660009081526005602090815260408083203384529091529020541015610cc85760006064610c26600a8b612470565b610c30919061240f565b6001600160a01b038916600090815260046020526040812080549293508392909190610c5d90849061245d565b90915550506001600160a01b03881660009081526004602052604081206001018054839290610c8d90849061245d565b90915550506001600160a01b03881660009081526005602090815260408083203384529091528120805491610cc183612444565b9190505550505b6001600160a01b0387166000908152600460205260408120600201805491610cef83612444565b90915550506001600160a01b038716600090815260046020526040812060030180548a9290610d1f90849061245d565b925050819055508760066000828254610d38919061245d565b925050819055508260096000828254610d51919061245d565b909155505060408051898152602081018390526001600160a01b0389169133917fc490a74c1058132dffb93944d555ddd1817ae53b7367ea1126ff123b1b134a58910160405180910390a35050505050505050565b33610db081611fc6565b610db9816120bf565b50565b600080610dc761196a565b90506000610dd96105e683600161245d565b9050804210610deb5760009250505090565b610df54282612431565b9250505090565b60005460ff168015610e1057506001544210155b15610e36576000805460ff1916815560405160008051602061254b833981519152908290a25b60005460ff1615610e595760405162461bcd60e51b81526004016107809061233f565b3360009081526004602052604090206001810154610eaf5760405162461bcd60e51b81526020600482015260136024820152724e6f20726566657272616c207265776172647360681b6044820152606401610780565b60018101546040516370a0823160e01b815230600482015281907f00000000000000000000000000000000000000000000000000000000000000006001600160a01b0316906370a0823190602401602060405180830381865afa158015610f1a573d6000803e3d6000fd5b505050506040513d601f19601f82011682018060405250810190610f3e9190612487565b1015610f5c5760405162461bcd60e51b8152600401610780906124a0565b6000826001018190555080826004016000828254610f7a919061245d565b925050819055508060086000828254610f93919061245d565b909155505060405163a9059cbb60e01b8152336004820152602481018290527f00000000000000000000000000000000000000000000000000000000000000006001600160a01b03169063a9059cbb906044016020604051808303816000875af1158015611005573d6000803e3d6000fd5b505050506040513d601f19601f8201168201806040525081019061102991906123ae565b6110455760405162461bcd60e51b8152600401610780906123cb565b60405181815233907f996ae228123457779bb0d7cd6daa18e54006fe2f6dc172f12197d826b08dabcd9060200160405180910390a25050565b336001600160a01b037f000000000000000000000000000000000000000000000000000000000000000016146110c65760405162461bcd60e51b8152600401610780906122b8565b60005460ff1680156110da57506001544210155b15611100576000805460ff1916815560405160008051602061254b833981519152908290a25b60005460ff16156111235760405162461bcd60e51b81526004016107809061233f565b600081116111685760405162461bcd60e51b81526020600482015260126024820152710416d6f756e74206d757374206265203e20360741b6044820152606401610780565b6001600160a01b03821660009081526003602052604081206006810180549192849261119590849061245d565b90915550506040518281526001600160a01b038416907f091b901c2f1d7f881630e9a17aef7fe1b73e1d3dc96e362e776c153e7117f35f906020015b60405180910390a2505050565b336001600160a01b037f000000000000000000000000000000000000000000000000000000000000000016146112265760405162461bcd60e51b8152600401610780906122b8565b600081116112765760405162461bcd60e51b815260206004820152601d60248201527f416d6f756e74206d7573742062652067726561746572207468616e20300000006044820152606401610780565b6040516370a0823160e01b815233600482015281907f00000000000000000000000000000000000000000000000000000000000000006001600160a01b0316906370a0823190602401602060405180830381865afa1580156112dc573d6000803e3d6000fd5b505050506040513d601f19601f820116820180604052508101906113009190612487565b101561134e5760405162461bcd60e51b815260206004820152601960248201527f496e73756666696369656e7420555344542062616c616e6365000000000000006044820152606401610780565b604051636eb1769f60e11b815233600482015230602482015281907f00000000000000000000000000000000000000000000000000000000000000006001600160a01b03169063dd62ed3e90604401602060405180830381865afa1580156113ba573d6000803e3d6000fd5b505050506040513d601f19601f820116820180604052508101906113de9190612487565b101561142c5760405162461bcd60e51b815260206004820152601b60248201527f496e73756666696369656e74205553445420616c6c6f77616e636500000000006044820152606401610780565b6040516323b872dd60e01b81526001600160a01b037f000000000000000000000000000000000000000000000000000000000000000016906323b872dd9061147c9033903090869060040161238a565b6020604051808303816000875af115801561149b573d6000803e3d6000fd5b505050506040513d601f19601f820116820180604052508101906114bf91906123ae565b610db95760405162461bcd60e51b8152600401610780906123cb565b806802b5e3af16b18800008110156115355760405162461bcd60e51b815260206004820152601f60248201527f4465706f7369742062656c6f77206d696e696d756d20283530205553445429006044820152606401610780565b69152d02c7e14af680000081111561155f5760405162461bcd60e51b8152600401610780906122f9565b60005460ff16801561157357506001544210155b15611599576000805460ff1916815560405160008051602061254b833981519152908290a25b60005460ff16156115bc5760405162461bcd60e51b81526004016107809061233f565b336115c681611fc6565b6115cf816120bf565b6040516323b872dd60e01b81526001600160a01b037f000000000000000000000000000000000000000000000000000000000000000016906323b872dd9061161f9033903090889060040161238a565b6020604051808303816000875af115801561163e573d6000803e3d6000fd5b505050506040513d601f19601f8201168201806040525081019061166291906123ae565b61167e5760405162461bcd60e51b8152600401610780906123cb565b600061168b60648561240f565b9050801561176d57600c5460405163a9059cbb60e01b81526001600160a01b039182166004820152602481018390527f00000000000000000000000000000000000000000000000000000000000000009091169063a9059cbb906044016020604051808303816000875af1158015611707573d6000803e3d6000fd5b505050506040513d601f19601f8201168201806040525081019061172b91906123ae565b61176d5760405162461bcd60e51b8152602060048201526013602482015272119959481d1c985b9cd9995c8819985a5b1959606a1b6044820152606401610780565b60006117798286612431565b33600090815260036020526040812080549293509190036117b757600a80549060006117a483612444565b91905055506117b161196a565b60088201555b60006117c161196a565b6117cc90600161245d565b9050868260000160008282546117e2919061245d565b92505081905550828260020160008282546117fd919061245d565b9091555050600382018190556006805488919060009061181e90849061245d565b925050819055508260096000828254611837919061245d565b9091555050604080518881526020810183905260009133917fc490a74c1058132dffb93944d555ddd1817ae53b7367ea1126ff123b1b134a58910160405180910390a350505050505050565b6001600160a01b0381166000908152600360209081526040808320600490925282208154600683015490939283929091836118bc61196a565b9050836004015481111561190f576103e88460040154826118dd9190612431565b601986600101546118ee9190612470565b6118f89190612470565b611902919061240f565b61190c908361245d565b91505b82600101548284600401548660070154611929919061245d565b611933919061245d565b61193d919061245d565b9550861561195f578661195287612710612470565b61195c919061240f565b94505b505050509193909250565b60006368659dd042101561197e5750600090565b620151806119906368659dd042612431565b61199a919061240f565b905090565b336001600160a01b037f000000000000000000000000000000000000000000000000000000000000000016146119e75760405162461bcd60e51b8152600401610780906122b8565b600c54600160a01b900460ff16611a405760405162461bcd60e51b815260206004820152601760248201527f4769766561776179206e6f7420796574206163746976650000000000000000006044820152606401610780565b60005b6003811015611b82576000828260038110611a6057611a606124e2565b6020020135118015611aa057506000838260038110611a8157611a816124e2565b602002016020810190611a94919061223d565b6001600160a01b031614155b15611b7a57600d546001600160a01b037f00000000000000000000000000000000000000000000000000000000000000008116916323b872dd9116858460038110611aed57611aed6124e2565b602002016020810190611b00919061223d565b858560038110611b1257611b126124e2565b60200201356040518463ffffffff1660e01b8152600401611b359392919061238a565b6020604051808303816000875af1158015611b54573d6000803e3d6000fd5b505050506040513d601f19601f82011682018060405250810190611b7891906123ae565b505b600101611a43565b507fd5e1c7c1f36ea0d607c2fd1be1265b026de8598ac1b26f781d2364fe775466088282426040516107ed939291906124f8565b60005460ff168015611bca57506001544210155b15611bf0576000805460ff1916815560405160008051602061254b833981519152908290a25b60005460ff1615611c135760405162461bcd60e51b81526004016107809061233f565b33611c1d81611fc6565b611c26816120bf565b3360009081526003602052604090206006810154611c7d5760405162461bcd60e51b81526020600482015260146024820152734e6f207265776172647320617661696c61626c6560601b6044820152606401610780565b6006810154680d8d726b7177a80000811115611c9f5750680d8d726b7177a800005b6040516370a0823160e01b815230600482015281907f00000000000000000000000000000000000000000000000000000000000000006001600160a01b0316906370a0823190602401602060405180830381865afa158015611d05573d6000803e3d6000fd5b505050506040513d601f19601f82011682018060405250810190611d299190612487565b1015611d475760405162461bcd60e51b8152600401610780906124a0565b80826006016000828254611d5b9190612431565b9250508190555080826007016000828254611d76919061245d565b925050819055508060076000828254611d8f919061245d565b909155505060405163a9059cbb60e01b8152336004820152602481018290527f00000000000000000000000000000000000000000000000000000000000000006001600160a01b03169063a9059cbb906044016020604051808303816000875af1158015611e01573d6000803e3d6000fd5b505050506040513d601f19601f82011682018060405250810190611e2591906123ae565b611e415760405162461bcd60e51b8152600401610780906123cb565b337ffa73d3ab3a92ed3f2b694757d8e4b2f3c293654b11b9c79111f8971f861b22b282611e6c61196a565b604080519283526020830191909152016111d1565b6000611e906201518083612470565b611e9e906368659dd061245d565b92915050565b6000806000806000806000600654600754600854600954600a547f00000000000000000000000000000000000000000000000000000000000000006001600160a01b03166370a08231306040518263ffffffff1660e01b8152600401611f1991906001600160a01b0391909116815260200190565b602060405180830381865afa158015611f36573d6000803e3d6000fd5b505050506040513d601f19601f82011682018060405250810190611f5a9190612487565b611f6261196a565b959d949c50929a50909850965094509092509050565b6001600160a01b038083166000908152600560209081526040808320938516835292905290812054906003821015611fba57611fb5826003612431565b611fbd565b60005b90509250929050565b6001600160a01b038116600090815260036020526040812090611fe761196a565b90506000808360020154118015612002575081836003015411155b1561205b57826002015483600101600082825461201f919061245d565b90915550506005830154158061203c575082600201548360010154145b1561204957600583018290555b50600060028301819055600383015560015b60028301546003840154604080519283526020830191909152810183905281151560608201526001600160a01b038516907fe83d409d41b2477e58cb908a93c19aaf6abe9e0f91426e72985ebc2eaa0011c39060800160405180910390a250505050565b6001600160a01b0381166000908152600360205260408120906120e061196a565b905060008260040154905080836005015411156120fe575060058201545b8082118015612111575060008360010154115b1561217b5760006121228284612431565b905060006103e8826019876001015461213b9190612470565b6121459190612470565b61214f919061240f565b905080856006016000828254612165919061245d565b9091555050505060048301829055600583018290555b50505050565b8015158114610db957600080fd5b80356001600160a01b03811681146121a657600080fd5b919050565b600080604083850312156121be57600080fd5b82356121c981612181565b9150611fbd6020840161218f565b600080604083850312156121ea57600080fd5b82359150611fbd6020840161218f565b6000806040838503121561220d57600080fd5b6122168361218f565b946020939093013593505050565b60006020828403121561223657600080fd5b5035919050565b60006020828403121561224f57600080fd5b6122588261218f565b9392505050565b8060608101831015611e9e57600080fd5b60008060c0838503121561228357600080fd5b61228d848461225f565b9150611fbd846060850161225f565b600080604083850312156122af57600080fd5b6121c98361218f565b60208082526021908201527f4f6e6c79206f776e65722063616e2063616c6c20746869732066756e6374696f6040820152603760f91b606082015260800190565b60208082526026908201527f4465706f7369742065786365656473206d6178696d756d20283130302c30303060408201526520555344542960d01b606082015260800190565b6020808252602b908201527f436f6e74726163742069732074656d706f726172696c7920706175736564206660408201526a6f7220736563757269747960a81b606082015260800190565b6001600160a01b039384168152919092166020820152604081019190915260600190565b6000602082840312156123c057600080fd5b815161225881612181565b6020808252601490820152731554d115081d1c985b9cd9995c8819985a5b195960621b604082015260600190565b634e487b7160e01b600052601160045260246000fd5b60008261242c57634e487b7160e01b600052601260045260246000fd5b500490565b81810381811115611e9e57611e9e6123f9565b600060018201612456576124566123f9565b5060010190565b80820180821115611e9e57611e9e6123f9565b8082028115828204841417611e9e57611e9e6123f9565b60006020828403121561249957600080fd5b5051919050565b60208082526022908201527f496e73756666696369656e7420636f6e747261637420555344542062616c616e604082015261636560f01b606082015260800190565b634e487b7160e01b600052603260045260246000fd5b60e08101818560005b6003811015612531576001600160a01b0361251b8361218f565b1683526020928301929190910190600101612501565b50505060608460608401378260c083015294935050505056fef5cbf596165cc457b2cd92e8d8450827ee314968160a5696402d75766fc52cafa264697066735822122010bbb73a7892d8d7925a1ee509de56dc91842e8480f8ffefdb95517748a5276364736f6c634300081c0033",
  "linkReferences": {},
  "deployedLinkReferences": {}
}