{
  "_format": "hh-sol-artifact-1",
  "contractName": "BlackVaultV2",
  "sourceName": "contracts/BlackVault.sol",
  "abi": [
    {
      "inputs": [
        {
          "internalType": "address",
          "name": "_usdtAddress",
          "type": "address"
        },
        {
          "internalType": "address",
          "name": "_feeWallet",
          "type": "address"
        }
      ],
      "stateMutability": "nonpayable",
      "type": "constructor"
    },
    {
      "anonymous": false,
      "inputs": [
        {
          "indexed": true,
          "internalType": "address",
          "name": "user",
          "type": "address"
        },
        {
          "indexed": false,
          "internalType": "uint256",
          "name": "amount",
          "type": "uint256"
        },
        {
          "indexed": true,
          "internalType": "address",
          "name": "referrer",
          "type": "address"
        },
        {
          "indexed": false,
          "internalType": "uint256",
          "name": "cycle",
          "type": "uint256"
        }
      ],
      "name": "Deposited",
      "type": "event"
    },
    {
      "anonymous": false,
      "inputs": [
        {
          "indexed": true,
          "internalType": "address",
          "name": "by",
          "type": "address"
        },
        {
          "indexed": false,
          "internalType": "uint256",
          "name": "pausedUntil",
          "type": "uint256"
        },
        {
          "indexed": false,
          "internalType": "string",
          "name": "reason",
          "type": "string"
        }
      ],
      "name": "EmergencyPaused",
      "type": "event"
    },
    {
      "anonymous": false,
      "inputs": [
        {
          "indexed": true,
          "internalType": "address",
          "name": "by",
          "type": "address"
        }
      ],
      "name": "EmergencyUnpaused",
      "type": "event"
    },
    {
      "anonymous": false,
      "inputs": [
        {
          "indexed": false,
          "internalType": "bool",
          "name": "enabled",
          "type": "bool"
        }
      ],
      "name": "GiveawayEnabled",
      "type": "event"
    },
    {
      "anonymous": false,
      "inputs": [
        {
          "indexed": true,
          "internalType": "address",
          "name": "user",
          "type": "address"
        },
        {
          "indexed": false,
          "internalType": "uint256",
          "name": "amount",
          "type": "uint256"
        }
      ],
      "name": "ReferralRewardsWithdrawn",
      "type": "event"
    },
    {
      "anonymous": false,
      "inputs": [
        {
          "indexed": true,
          "internalType": "address",
          "name": "user",
          "type": "address"
        },
        {
          "indexed": false,
          "internalType": "uint256",
          "name": "amount",
          "type": "uint256"
        },
        {
          "indexed": false,
          "internalType": "uint256",
          "name": "cycle",
          "type": "uint256"
        }
      ],
      "name": "RewardsWithdrawn",
      "type": "event"
    },
    {
      "anonymous": false,
      "inputs": [
        {
          "indexed": false,
          "internalType": "address[3]",
          "name": "winners",
          "type": "address[3]"
        },
        {
          "indexed": false,
          "internalType": "uint256[3]",
          "name": "amounts",
          "type": "uint256[3]"
        },
        {
          "indexed": false,
          "internalType": "uint256",
          "name": "timestamp",
          "type": "uint256"
        }
      ],
      "name": "WeeklyPrizesDistributed",
      "type": "event"
    },
    {
      "inputs": [],
      "name": "CYCLE_DURATION",
      "outputs": [
        {
          "internalType": "uint256",
          "name": "",
          "type": "uint256"
        }
      ],
      "stateMutability": "view",
      "type": "function"
    },
    {
      "inputs": [],
      "name": "CYCLE_START_TIME",
      "outputs": [
        {
          "internalType": "uint256",
          "name": "",
          "type": "uint256"
        }
      ],
      "stateMutability": "view",
      "type": "function"
    },
    {
      "inputs": [],
      "name": "DAILY_RATE",
      "outputs": [
        {
          "internalType": "uint256",
          "name": "",
          "type": "uint256"
        }
      ],
      "stateMutability": "view",
      "type": "function"
    },
    {
      "inputs": [],
      "name": "MAX_DEPOSIT",
      "outputs": [
        {
          "internalType": "uint256",
          "name": "",
          "type": "uint256"
        }
      ],
      "stateMutability": "view",
      "type": "function"
    },
    {
      "inputs": [],
      "name": "MAX_PAUSE_DURATION",
      "outputs": [
        {
          "internalType": "uint256",
          "name": "",
          "type": "uint256"
        }
      ],
      "stateMutability": "view",
      "type": "function"
    },
    {
      "inputs": [],
      "name": "MAX_REFERRAL_REWARDS_PER_REFEREE",
      "outputs": [
        {
          "internalType": "uint256",
          "name": "",
          "type": "uint256"
        }
      ],
      "stateMutability": "view",
      "type": "function"
    },
    {
      "inputs": [],
      "name": "MAX_WITHDRAWAL_PER_CYCLE",
      "outputs": [
        {
          "internalType": "uint256",
          "name": "",
          "type": "uint256"
        }
      ],
      "stateMutability": "view",
      "type": "function"
    },
    {
      "inputs": [],
      "name": "MIN_DEPOSIT",
      "outputs": [
        {
          "internalType": "uint256",
          "name": "",
          "type": "uint256"
        }
      ],
      "stateMutability": "view",
      "type": "function"
    },
    {
      "inputs": [],
      "name": "REFERRAL_REWARD_PERCENT",
      "outputs": [
        {
          "internalType": "uint256",
          "name": "",
          "type": "uint256"
        }
      ],
      "stateMutability": "view",
      "type": "function"
    },
    {
      "inputs": [],
      "name": "USDT",
      "outputs": [
        {
          "internalType": "contract IERC20",
          "name": "",
          "type": "address"
        }
      ],
      "stateMutability": "view",
      "type": "function"
    },
    {
      "inputs": [
        {
          "internalType": "address",
          "name": "user",
          "type": "address"
        }
      ],
      "name": "calculateRewards",
      "outputs": [
        {
          "internalType": "uint256",
          "name": "total",
          "type": "uint256"
        },
        {
          "internalType": "uint256",
          "name": "maxWithdrawable",
          "type": "uint256"
        }
      ],
      "stateMutability": "view",
      "type": "function"
    },
    {
      "inputs": [],
      "name": "contractLaunchCycle",
      "outputs": [
        {
          "internalType": "uint256",
          "name": "",
          "type": "uint256"
        }
      ],
      "stateMutability": "view",
      "type": "function"
    },
    {
      "inputs": [],
      "name": "defaultReferrer",
      "outputs": [
        {
          "internalType": "address",
          "name": "",
          "type": "address"
        }
      ],
      "stateMutability": "view",
      "type": "function"
    },
    {
      "inputs": [
        {
          "internalType": "uint256",
          "name": "amount",
          "type": "uint256"
        }
      ],
      "name": "deposit",
      "outputs": [],
      "stateMutability": "nonpayable",
      "type": "function"
    },
    {
      "inputs": [
        {
          "internalType": "uint256",
          "name": "amount",
          "type": "uint256"
        },
        {
          "internalType": "address",
          "name": "referrer",
          "type": "address"
        }
      ],
      "name": "depositWithReferrer",
      "outputs": [],
      "stateMutability": "nonpayable",
      "type": "function"
    },
    {
      "inputs": [
        {
          "internalType": "address[3]",
          "name": "winners",
          "type": "address[3]"
        },
        {
          "internalType": "uint256[3]",
          "name": "amounts",
          "type": "uint256[3]"
        }
      ],
      "name": "distributeWeeklyPrizes",
      "outputs": [],
      "stateMutability": "nonpayable",
      "type": "function"
    },
    {
      "inputs": [
        {
          "internalType": "uint256",
          "name": "duration",
          "type": "uint256"
        },
        {
          "internalType": "string",
          "name": "reason",
          "type": "string"
        }
      ],
      "name": "emergencyPause",
      "outputs": [],
      "stateMutability": "nonpayable",
      "type": "function"
    },
    {
      "inputs": [],
      "name": "emergencyUnpause",
      "outputs": [],
      "stateMutability": "nonpayable",
      "type": "function"
    },
    {
      "inputs": [],
      "name": "feeWallet",
      "outputs": [
        {
          "internalType": "address",
          "name": "",
          "type": "address"
        }
      ],
      "stateMutability": "view",
      "type": "function"
    },
    {
      "inputs": [
        {
          "internalType": "uint256",
          "name": "amount",
          "type": "uint256"
        }
      ],
      "name": "fundContract",
      "outputs": [],
      "stateMutability": "nonpayable",
      "type": "function"
    },
    {
      "inputs": [],
      "name": "getContractStats",
      "outputs": [
        {
          "internalType": "uint256",
          "name": "_totalDep",
          "type": "uint256"
        },
        {
          "internalType": "uint256",
          "name": "_rewardsWithdrawn",
          "type": "uint256"
        },
        {
          "internalType": "uint256",
          "name": "_refRewardsWithdrawn",
          "type": "uint256"
        },
        {
          "internalType": "uint256",
          "name": "_activeAmt",
          "type": "uint256"
        },
        {
          "internalType": "uint256",
          "name": "_users",
          "type": "uint256"
        },
        {
          "internalType": "uint256",
          "name": "_balance",
          "type": "uint256"
        },
        {
          "internalType": "uint256",
          "name": "_currCycle",
          "type": "uint256"
        }
      ],
      "stateMutability": "view",
      "type": "function"
    },
    {
      "inputs": [],
      "name": "getCurrentCycle",
      "outputs": [
        {
          "internalType": "uint256",
          "name": "",
          "type": "uint256"
        }
      ],
      "stateMutability": "view",
      "type": "function"
    },
    {
      "inputs": [
        {
          "internalType": "uint256",
          "name": "cycle",
          "type": "uint256"
        }
      ],
      "name": "getCycleStartTime",
      "outputs": [
        {
          "internalType": "uint256",
          "name": "",
          "type": "uint256"
        }
      ],
      "stateMutability": "pure",
      "type": "function"
    },
    {
      "inputs": [],
      "name": "getPauseStatus",
      "outputs": [
        {
          "internalType": "bool",
          "name": "isPaused",
          "type": "bool"
        },
        {
          "internalType": "uint256",
          "name": "remainingTime",
          "type": "uint256"
        },
        {
          "internalType": "uint256",
          "name": "totalPausedTime_",
          "type": "uint256"
        }
      ],
      "stateMutability": "view",
      "type": "function"
    },
    {
      "inputs": [
        {
          "internalType": "address",
          "name": "referrer",
          "type": "address"
        },
        {
          "internalType": "address",
          "name": "referee",
          "type": "address"
        }
      ],
      "name": "getReferralBonusInfo",
      "outputs": [
        {
          "internalType": "uint256",
          "name": "used",
          "type": "uint256"
        },
        {
          "internalType": "uint256",
          "name": "remaining",
          "type": "uint256"
        }
      ],
      "stateMutability": "view",
      "type": "function"
    },
    {
      "inputs": [],
      "name": "getTimeUntilNextCycle",
      "outputs": [
        {
          "internalType": "uint256",
          "name": "",
          "type": "uint256"
        }
      ],
      "stateMutability": "view",
      "type": "function"
    },
    {
      "inputs": [],
      "name": "getUSDTAddress",
      "outputs": [
        {
          "internalType": "address",
          "name": "",
          "type": "address"
        }
      ],
      "stateMutability": "view",
      "type": "function"
    },
    {
      "inputs": [
        {
          "internalType": "address",
          "name": "user",
          "type": "address"
        }
      ],
      "name": "getUserROI",
      "outputs": [
        {
          "internalType": "uint256",
          "name": "invested",
          "type": "uint256"
        },
        {
          "internalType": "uint256",
          "name": "earned",
          "type": "uint256"
        },
        {
          "internalType": "uint256",
          "name": "roiBP",
          "type": "uint256"
        }
      ],
      "stateMutability": "view",
      "type": "function"
    },
    {
      "inputs": [
        {
          "internalType": "address",
          "name": "user",
          "type": "address"
        }
      ],
      "name": "getUserReferralData",
      "outputs": [
        {
          "internalType": "uint256",
          "name": "_totalRewards",
          "type": "uint256"
        },
        {
          "internalType": "uint256",
          "name": "_availableRewards",
          "type": "uint256"
        },
        {
          "internalType": "uint256",
          "name": "_referredCount",
          "type": "uint256"
        },
        {
          "internalType": "uint256",
          "name": "_totalVolume",
          "type": "uint256"
        },
        {
          "internalType": "uint256",
          "name": "_totalWithdrawn",
          "type": "uint256"
        }
      ],
      "stateMutability": "view",
      "type": "function"
    },
    {
      "inputs": [
        {
          "internalType": "address",
          "name": "user",
          "type": "address"
        }
      ],
      "name": "getUserVault",
      "outputs": [
        {
          "internalType": "uint256",
          "name": "_totalDeposited",
          "type": "uint256"
        },
        {
          "internalType": "uint256",
          "name": "_totalRewardsWithdrawn",
          "type": "uint256"
        },
        {
          "internalType": "uint256",
          "name": "_joinedCycle",
          "type": "uint256"
        },
        {
          "internalType": "uint256",
          "name": "_pendingRewards",
          "type": "uint256"
        }
      ],
      "stateMutability": "view",
      "type": "function"
    },
    {
      "inputs": [],
      "name": "giveawayEnabled",
      "outputs": [
        {
          "internalType": "bool",
          "name": "",
          "type": "bool"
        }
      ],
      "stateMutability": "view",
      "type": "function"
    },
    {
      "inputs": [],
      "name": "giveawayFundSource",
      "outputs": [
        {
          "internalType": "address",
          "name": "",
          "type": "address"
        }
      ],
      "stateMutability": "view",
      "type": "function"
    },
    {
      "inputs": [
        {
          "internalType": "address",
          "name": "",
          "type": "address"
        }
      ],
      "name": "lastClaimedCycle",
      "outputs": [
        {
          "internalType": "uint256",
          "name": "",
          "type": "uint256"
        }
      ],
      "stateMutability": "view",
      "type": "function"
    },
    {
      "inputs": [],
      "name": "owner",
      "outputs": [
        {
          "internalType": "address",
          "name": "",
          "type": "address"
        }
      ],
      "stateMutability": "view",
      "type": "function"
    },
    {
      "inputs": [],
      "name": "paused",
      "outputs": [
        {
          "internalType": "bool",
          "name": "",
          "type": "bool"
        }
      ],
      "stateMutability": "view",
      "type": "function"
    },
    {
      "inputs": [],
      "name": "pausedUntil",
      "outputs": [
        {
          "internalType": "uint256",
          "name": "",
          "type": "uint256"
        }
      ],
      "stateMutability": "view",
      "type": "function"
    },
    {
      "inputs": [
        {
          "internalType": "address",
          "name": "",
          "type": "address"
        },
        {
          "internalType": "address",
          "name": "",
          "type": "address"
        }
      ],
      "name": "referralRewardCount",
      "outputs": [
        {
          "internalType": "uint256",
          "name": "",
          "type": "uint256"
        }
      ],
      "stateMutability": "view",
      "type": "function"
    },
    {
      "inputs": [
        {
          "internalType": "address",
          "name": "",
          "type": "address"
        }
      ],
      "name": "referrals",
      "outputs": [
        {
          "internalType": "uint256",
          "name": "totalRewards",
          "type": "uint256"
        },
        {
          "internalType": "uint256",
          "name": "availableRewards",
          "type": "uint256"
        },
        {
          "internalType": "uint256",
          "name": "referredCount",
          "type": "uint256"
        },
        {
          "internalType": "uint256",
          "name": "totalReferredVolume",
          "type": "uint256"
        },
        {
          "internalType": "uint256",
          "name": "totalWithdrawn",
          "type": "uint256"
        }
      ],
      "stateMutability": "view",
      "type": "function"
    },
    {
      "inputs": [
        {
          "internalType": "bool",
          "name": "_on",
          "type": "bool"
        },
        {
          "internalType": "address",
          "name": "_fundSource",
          "type": "address"
        }
      ],
      "name": "setGiveawayEnabled",
      "outputs": [],
      "stateMutability": "nonpayable",
      "type": "function"
    },
    {
      "inputs": [],
      "name": "totalActiveAmount",
      "outputs": [
        {
          "internalType": "uint256",
          "name": "",
          "type": "uint256"
        }
      ],
      "stateMutability": "view",
      "type": "function"
    },
    {
      "inputs": [],
      "name": "totalDeposited",
      "outputs": [
        {
          "internalType": "uint256",
          "name": "",
          "type": "uint256"
        }
      ],
      "stateMutability": "view",
      "type": "function"
    },
    {
      "inputs": [],
      "name": "totalPauseTime",
      "outputs": [
        {
          "internalType": "uint256",
          "name": "",
          "type": "uint256"
        }
      ],
      "stateMutability": "view",
      "type": "function"
    },
    {
      "inputs": [],
      "name": "totalReferralRewardsWithdrawn",
      "outputs": [
        {
          "internalType": "uint256",
          "name": "",
          "type": "uint256"
        }
      ],
      "stateMutability": "view",
      "type": "function"
    },
    {
      "inputs": [],
      "name": "totalRewardsWithdrawn",
      "outputs": [
        {
          "internalType": "uint256",
          "name": "",
          "type": "uint256"
        }
      ],
      "stateMutability": "view",
      "type": "function"
    },
    {
      "inputs": [],
      "name": "totalUsers",
      "outputs": [
        {
          "internalType": "uint256",
          "name": "",
          "type": "uint256"
        }
      ],
      "stateMutability": "view",
      "type": "function"
    },
    {
      "inputs": [
        {
          "internalType": "address",
          "name": "",
          "type": "address"
        },
        {
          "internalType": "uint256",
          "name": "",
          "type": "uint256"
        }
      ],
      "name": "userDeposits",
      "outputs": [
        {
          "internalType": "uint256",
          "name": "amount",
          "type": "uint256"
        },
        {
          "internalType": "uint256",
          "name": "activationCycle",
          "type": "uint256"
        }
      ],
      "stateMutability": "view",
      "type": "function"
    },
    {
      "inputs": [
        {
          "internalType": "address",
          "name": "",
          "type": "address"
        }
      ],
      "name": "vaults",
      "outputs": [
        {
          "internalType": "uint256",
          "name": "totalDeposited",
          "type": "uint256"
        },
        {
          "internalType": "uint256",
          "name": "totalRewardsWithdrawn",
          "type": "uint256"
        },
        {
          "internalType": "uint256",
          "name": "joinedCycle",
          "type": "uint256"
        }
      ],
      "stateMutability": "view",
      "type": "function"
    },
    {
      "inputs": [],
      "name": "withdrawReferralRewards",
      "outputs": [],
      "stateMutability": "nonpayable",
      "type": "function"
    },
    {
      "inputs": [
        {
          "internalType": "uint256",
          "name": "amount",
          "type": "uint256"
        }
      ],
      "name": "withdrawRewards",
      "outputs": [],
      "stateMutability": "nonpayable",
      "type": "function"
    }
  ],
  "bytecode": "0x60c060405234801561001057600080fd5b50604051612d75380380612d7583398101604081905261002f916102c0565b6001600160a01b03821661008a5760405162461bcd60e51b815260206004820152601460248201527f496e76616c69642055534454206164647265737300000000000000000000000060448201526064015b60405180910390fd5b6001600160a01b0381166100e05760405162461bcd60e51b815260206004820152601a60248201527f496e76616c6964206665652077616c6c657420616464726573730000000000006044820152606401610081565b3360a0526001600160a01b03828116608052600e80546001600160a01b03191691831691909117905561011161026f565b600d819055506080516001600160a01b031663313ce5676040518163ffffffff1660e01b8152600401602060405180830381865afa925050508015610173575060408051601f3d908101601f19168201909252610170918101906102f3565b60015b6101bf5760405162461bcd60e51b815260206004820152601d60248201527f4661696c656420746f206665746368205553445420646563696d616c730000006044820152606401610081565b8060ff166012146102125760405162461bcd60e51b815260206004820152601a60248201527f55534454206d757374206861766520313820646563696d616c730000000000006044820152606401610081565b505050600f80546001600160a01b03191673706961c676fe743c34a867437661d13e16adcbec908117909155600052600360205260017ffb564b1af8e42da9bc32e22ae6a4fd922b84ae6a10f3a91ed557fbd80576f79a55610366565b60006368659dd04210156102835750600090565b620151806102956368659dd04261031d565b61029f9190610344565b905090565b80516001600160a01b03811681146102bb57600080fd5b919050565b600080604083850312156102d357600080fd5b6102dc836102a4565b91506102ea602084016102a4565b90509250929050565b60006020828403121561030557600080fd5b815160ff8116811461031657600080fd5b9392505050565b8181038181111561033e57634e487b7160e01b600052601160045260246000fd5b92915050565b60008261036157634e487b7160e01b600052601260045260246000fd5b500490565b60805160a05161296c6104096000396000818161041a01528181610770015281816112950152818161159501528181611a9401526121440152600081816103dd015281816105c701528181610a8201528181610b580152818161109c015281816111c00152818161133901528181611417015281816114ef0152818161198d01528181611d1d01528181611df30152818161224c015261238f015261296c6000f3fe608060405234801561001057600080fd5b50600436106102bb5760003560e01c8063a622ee7c11610182578063cd421fbf116100e9578063e1e158a5116100a2578063f25f4b561161007c578063f25f4b561461072d578063f5bfdd2614610740578063f5c3eb3614610749578063ff50abdc1461075c57600080fd5b8063e1e158a5146106e1578063eb53e214146106f1578063f2380a08146106fa57600080fd5b8063cd421fbf14610627578063da748b1014610631578063dd5967c31461063a578063df140a0c1461064b578063dfe6b5d61461065e578063e1c8e9761461069b57600080fd5b8063be183e6a1161013b578063be183e6a1461059e578063be26ed7f146105b1578063bff1f9e1146105b9578063c54e44eb146105c2578063c66855b4146105e9578063c9d454b7146105fc57600080fd5b8063a622ee7c14610502578063a6720e831461054c578063a98c1cfd1461055f578063b6b55f2514610573578063b8ccec1a14610586578063bb5e5af21461059657600080fd5b80635c975abb1161022657806391b33125116101df57806391b331251461043c5780639216092e1461044f5780639342c8f414610462578063978d83f2146104755780639ca423b31461047d578063a51e262d146104e257600080fd5b80635c975abb1461039a57806364ab8675146103b757806373684856146103ca57806388aa05d3146103d25780638af3c40e146103db5780638da5cb5b1461041557600080fd5b80631fb9f6fa116102785780631fb9f6fa1461035b5780632799657d146103635780633519a2f81461036d5780633b704eb9146103805780634100ce4a146103895780634a4e3bd51461039257600080fd5b806307b36fa3146102c057806308f43333146102d557806315982e1e146103025780631622829c146103155780631934c50a1461032e5780631d9023cb14610336575b600080fd5b6102d36102ce366004612505565b610765565b005b6102e86102e3366004612531565b610826565b604080519283526020830191909152015b60405180910390f35b6102d361031036600461255b565b610862565b6103206368659dd081565b6040519081526020016102f9565b610320610f1c565b61033e610f5c565b6040805193151584526020840192909252908201526060016102f9565b6102d3610fcd565b61032062093a8081565b6102d361037b36600461257e565b61128a565b610320600d5481565b610320600a5481565b6102d361158a565b6000546103a79060ff1681565b60405190151581526020016102f9565b6102e86103c5366004612597565b611638565b610320601981565b610320600b5481565b7f00000000000000000000000000000000000000000000000000000000000000005b6040516001600160a01b0390911681526020016102f9565b6103fd7f000000000000000000000000000000000000000000000000000000000000000081565b600f546103fd906001600160a01b031681565b6010546103fd906001600160a01b031681565b6102d361047036600461257e565b611747565b610320600381565b6104ba61048b366004612597565b600660205260009081526040902080546001820154600283015460038401546004909401549293919290919085565b604080519586526020860194909452928401919091526060830152608082015260a0016102f9565b6103206104f0366004612597565b60056020526000908152604090205481565b610531610510366004612597565b60036020526000908152604090208054600182015460029092015490919083565b604080519384526020840192909252908201526060016102f9565b6102d361055a3660046125b9565b611a89565b600f546103a790600160a01b900460ff1681565b6102d361058136600461257e565b611c25565b610320680d8d726b7177a8000081565b610320600a81565b6105316105ac366004612597565b612075565b610320612104565b610320600c5481565b6103fd7f000000000000000000000000000000000000000000000000000000000000000081565b6102d36105f7366004612648565b612139565b61032061060a366004612674565b600760209081526000928352604080842090915290825290205481565b6103206201518081565b61032060015481565b61032069152d02c7e14af680000081565b61032061065936600461257e565b612350565b610666612373565b604080519788526020880196909652948601939093526060850191909152608084015260a083015260c082015260e0016102f9565b6104ba6106a9366004612597565b6001600160a01b0316600090815260066020526040902080546001820154600283015460038401546004909401549294919390929091565b6103206802b5e3af16b188000081565b61032060095481565b61070d610708366004612597565b612447565b6040805194855260208501939093529183015260608201526080016102f9565b600e546103fd906001600160a01b031681565b61032060025481565b6102e8610757366004612674565b61248d565b61032060085481565b336001600160a01b037f000000000000000000000000000000000000000000000000000000000000000016146107b65760405162461bcd60e51b81526004016107ad90612690565b60405180910390fd5b600f805460ff60a01b1916600160a01b84151590810291909117909155601080546001600160a01b0319166001600160a01b0384161790556040519081527f95f35134611beab180e2265f228dbc6050a762f611b335bc1d16366913a19558906020015b60405180910390a15050565b6004602052816000526040600020818154811061084257600080fd5b600091825260209091206002909102018054600190910154909250905082565b816802b5e3af16b18800008110156108bc5760405162461bcd60e51b815260206004820152601f60248201527f4465706f7369742062656c6f77206d696e696d756d202835302055534454290060448201526064016107ad565b69152d02c7e14af68000008111156108e65760405162461bcd60e51b81526004016107ad906126d1565b60005460ff1680156108fa57506001544210155b15610920576000805460ff19168155604051600080516020612917833981519152908290a25b60005460ff16156109435760405162461bcd60e51b81526004016107ad90612717565b6001600160a01b03821661096057600f546001600160a01b031691505b6001600160a01b0382166109b65760405162461bcd60e51b815260206004820152601f60248201527f52656665727265722063616e6e6f74206265207a65726f20616464726573730060448201526064016107ad565b336001600160a01b03831603610a065760405162461bcd60e51b815260206004820152601560248201527421b0b73737ba103932b332b9103cb7bab939b2b63360591b60448201526064016107ad565b6001600160a01b038216600090815260036020526040902054610a6b5760405162461bcd60e51b815260206004820152601c60248201527f5265666572726572206d7573742062652061637469766520757365720000000060448201526064016107ad565b6040516323b872dd60e01b81526001600160a01b037f000000000000000000000000000000000000000000000000000000000000000016906323b872dd90610abb90339030908890600401612762565b6020604051808303816000875af1158015610ada573d6000803e3d6000fd5b505050506040513d601f19601f82011682018060405250810190610afe9190612786565b610b1a5760405162461bcd60e51b81526004016107ad906127a3565b6000610b276064856127e7565b90508015610c0957600e5460405163a9059cbb60e01b81526001600160a01b039182166004820152602481018390527f00000000000000000000000000000000000000000000000000000000000000009091169063a9059cbb906044016020604051808303816000875af1158015610ba3573d6000803e3d6000fd5b505050506040513d601f19601f82011682018060405250810190610bc79190612786565b610c095760405162461bcd60e51b8152602060048201526013602482015272119959481d1c985b9cd9995c8819985a5b1959606a1b60448201526064016107ad565b6000610c158286612809565b3360009081526003602052604081208054929350919003610c5357600c8054906000610c408361281c565b9190505550610c4d612104565b60028201555b85816000016000828254610c679190612835565b90915550506001600160a01b038516600090815260076020908152604080832033845290915290205460031115610d495760006064610ca7600a89612848565b610cb191906127e7565b6001600160a01b038716600090815260066020526040812080549293508392909190610cde908490612835565b90915550506001600160a01b03861660009081526006602052604081206001018054839290610d0e908490612835565b90915550506001600160a01b03861660009081526007602090815260408083203384529091528120805491610d428361281c565b9190505550505b6001600160a01b0385166000908152600660205260408120600201805491610d708361281c565b90915550506001600160a01b03851660009081526006602052604081206003018054889290610da0908490612835565b925050819055508560086000828254610db99190612835565b9250508190555081600b6000828254610dd29190612835565b9091555060009050610de2612104565b610ded906002612835565b33600090815260046020526040902080549192509015801590610e415750805482908290610e1d90600190612809565b81548110610e2d57610e2d61285f565b906000526020600020906002020160010154145b15610e9357805484908290610e5890600190612809565b81548110610e6857610e6861285f565b90600052602060002090600202016000016000828254610e889190612835565b90915550610ecc9050565b60408051808201909152848152602080820184815283546001818101865560008681529390932093516002909102909301928355519101555b60408051898152602081018490526001600160a01b0389169133917fc490a74c1058132dffb93944d555ddd1817ae53b7367ea1126ff123b1b134a58910160405180910390a35050505050505050565b600080610f27612104565b90506000610f39610659836001612835565b9050804210610f4b5760009250505090565b610f554282612809565b9250505090565b600080548190819060ff168015610f7557506001544210155b15610f87575050600254600092839250565b6000805460ff16610f99576000610fb7565b4260015411610fa9576000610fb7565b42600154610fb79190612809565b60005460025460ff909116969195509350915050565b60005460ff168015610fe157506001544210155b15611007576000805460ff19168155604051600080516020612917833981519152908290a25b60005460ff161561102a5760405162461bcd60e51b81526004016107ad90612717565b33600090815260066020526040902060018101546110805760405162461bcd60e51b81526020600482015260136024820152724e6f20726566657272616c207265776172647360681b60448201526064016107ad565b60018101546040516370a0823160e01b815230600482015281907f00000000000000000000000000000000000000000000000000000000000000006001600160a01b0316906370a0823190602401602060405180830381865afa1580156110eb573d6000803e3d6000fd5b505050506040513d601f19601f8201168201806040525081019061110f9190612875565b10156111685760405162461bcd60e51b815260206004820152602260248201527f496e73756666696369656e7420636f6e747261637420555344542062616c616e604482015261636560f01b60648201526084016107ad565b60008260010181905550808260040160008282546111869190612835565b9250508190555080600a600082825461119f9190612835565b909155505060405163a9059cbb60e01b8152336004820152602481018290527f00000000000000000000000000000000000000000000000000000000000000006001600160a01b03169063a9059cbb906044016020604051808303816000875af1158015611211573d6000803e3d6000fd5b505050506040513d601f19601f820116820180604052508101906112359190612786565b6112515760405162461bcd60e51b81526004016107ad906127a3565b60405181815233907f996ae228123457779bb0d7cd6daa18e54006fe2f6dc172f12197d826b08dabcd9060200160405180910390a25050565b336001600160a01b037f000000000000000000000000000000000000000000000000000000000000000016146112d25760405162461bcd60e51b81526004016107ad90612690565b600081116113225760405162461bcd60e51b815260206004820152601d60248201527f416d6f756e74206d7573742062652067726561746572207468616e203000000060448201526064016107ad565b6040516370a0823160e01b815233600482015281907f00000000000000000000000000000000000000000000000000000000000000006001600160a01b0316906370a0823190602401602060405180830381865afa158015611388573d6000803e3d6000fd5b505050506040513d601f19601f820116820180604052508101906113ac9190612875565b10156113fa5760405162461bcd60e51b815260206004820152601960248201527f496e73756666696369656e7420555344542062616c616e63650000000000000060448201526064016107ad565b604051636eb1769f60e11b815233600482015230602482015281907f00000000000000000000000000000000000000000000000000000000000000006001600160a01b03169063dd62ed3e90604401602060405180830381865afa158015611466573d6000803e3d6000fd5b505050506040513d601f19601f8201168201806040525081019061148a9190612875565b10156114d85760405162461bcd60e51b815260206004820152601b60248201527f496e73756666696369656e74205553445420616c6c6f77616e6365000000000060448201526064016107ad565b6040516323b872dd60e01b81526001600160a01b037f000000000000000000000000000000000000000000000000000000000000000016906323b872dd9061152890339030908690600401612762565b6020604051808303816000875af1158015611547573d6000803e3d6000fd5b505050506040513d601f19601f8201168201806040525081019061156b9190612786565b6115875760405162461bcd60e51b81526004016107ad906127a3565b50565b336001600160a01b037f000000000000000000000000000000000000000000000000000000000000000016146115d25760405162461bcd60e51b81526004016107ad90612690565b60005460ff166116115760405162461bcd60e51b815260206004820152600a602482015269139bdd081c185d5cd95960b21b60448201526064016107ad565b6000805460ff191681556001819055604051339160008051602061291783398151915291a2565b6001600160a01b038116600090815260046020526040812081908161165b612104565b6001600160a01b038616600090815260056020526040812054909550909150845b835481101561171b5760008482815481106116995761169961285f565b906000526020600020906002020190506000838260010154116116bc57836116c2565b81600101545b9050808511156117115760006116d88287612809565b90506103e881601985600001546116ef9190612848565b6116f99190612848565b61170391906127e7565b61170d908a612835565b9850505b505060010161167c565b50680d8d726b7177a800008511611732578461173d565b680d8d726b7177a800005b9350505050915091565b60005460ff16801561175b57506001544210155b15611781576000805460ff19168155604051600080516020612917833981519152908290a25b60005460ff16156117a45760405162461bcd60e51b81526004016107ad90612717565b600081116118085760405162461bcd60e51b815260206004820152602b60248201527f5769746864726177616c20616d6f756e74206d7573742062652067726561746560448201526a72207468616e207a65726f60a81b60648201526084016107ad565b60008061181433611638565b915091506000821161185f5760405162461bcd60e51b81526020600482015260146024820152734e6f207265776172647320617661696c61626c6560601b60448201526064016107ad565b818311156118af5760405162461bcd60e51b815260206004820152601e60248201527f416d6f756e7420657863656564732070656e64696e672072657761726473000060448201526064016107ad565b808311156119195760405162461bcd60e51b815260206004820152603160248201527f416d6f756e742065786365656473206d6178696d756d207769746864726177616044820152706c206c696d697420706572206379636c6560781b60648201526084016107ad565b611921612104565b336000908152600560209081526040808320939093556003905290812060018101805491928692611953908490612835565b92505081905550836009600082825461196c9190612835565b909155505060405163a9059cbb60e01b8152336004820152602481018590527f00000000000000000000000000000000000000000000000000000000000000006001600160a01b03169063a9059cbb906044016020604051808303816000875af11580156119de573d6000803e3d6000fd5b505050506040513d601f19601f82011682018060405250810190611a029190612786565b611a405760405162461bcd60e51b815260206004820152600f60248201526e151c985b9cd9995c8819985a5b1959608a1b60448201526064016107ad565b337ffa73d3ab3a92ed3f2b694757d8e4b2f3c293654b11b9c79111f8971f861b22b285611a6b612104565b6040805192835260208301919091520160405180910390a250505050565b336001600160a01b037f00000000000000000000000000000000000000000000000000000000000000001614611ad15760405162461bcd60e51b81526004016107ad90612690565b60005460ff1615611b155760405162461bcd60e51b815260206004820152600e60248201526d105b1c9958591e481c185d5cd95960921b60448201526064016107ad565b600083118015611b28575062093a808311155b611b6d5760405162461bcd60e51b815260206004820152601660248201527524b73b30b634b2103830bab9b290323ab930ba34b7b760511b60448201526064016107ad565b80611bac5760405162461bcd60e51b815260206004820152600f60248201526e1499585cdbdb881c995c5d5a5c9959608a1b60448201526064016107ad565b6000805460ff19166001179055611bc38342612835565b6001819055508260026000828254611bdb9190612835565b909155505060015460405133917fa3602c42d2d7c009a82f4d3d2ca2c043e484c5f412f4d8ebeb2f85a4a7b6104891611c1891908690869061288e565b60405180910390a2505050565b806802b5e3af16b1880000811015611c7f5760405162461bcd60e51b815260206004820152601f60248201527f4465706f7369742062656c6f77206d696e696d756d202835302055534454290060448201526064016107ad565b69152d02c7e14af6800000811115611ca95760405162461bcd60e51b81526004016107ad906126d1565b60005460ff168015611cbd57506001544210155b15611ce3576000805460ff19168155604051600080516020612917833981519152908290a25b60005460ff1615611d065760405162461bcd60e51b81526004016107ad90612717565b6040516323b872dd60e01b81526001600160a01b037f000000000000000000000000000000000000000000000000000000000000000016906323b872dd90611d5690339030908790600401612762565b6020604051808303816000875af1158015611d75573d6000803e3d6000fd5b505050506040513d601f19601f82011682018060405250810190611d999190612786565b611db55760405162461bcd60e51b81526004016107ad906127a3565b6000611dc26064846127e7565b90508015611ea457600e5460405163a9059cbb60e01b81526001600160a01b039182166004820152602481018390527f00000000000000000000000000000000000000000000000000000000000000009091169063a9059cbb906044016020604051808303816000875af1158015611e3e573d6000803e3d6000fd5b505050506040513d601f19601f82011682018060405250810190611e629190612786565b611ea45760405162461bcd60e51b8152602060048201526013602482015272119959481d1c985b9cd9995c8819985a5b1959606a1b60448201526064016107ad565b6000611eb08285612809565b3360009081526003602052604081208054929350919003611eee57600c8054906000611edb8361281c565b9190505550611ee8612104565b60028201555b84816000016000828254611f029190612835565b925050819055508460086000828254611f1b9190612835565b9250508190555081600b6000828254611f349190612835565b9091555060009050611f44612104565b611f4f906002612835565b33600090815260046020526040902080549192509015801590611fa35750805482908290611f7f90600190612809565b81548110611f8f57611f8f61285f565b906000526020600020906002020160010154145b15611ff557805484908290611fba90600190612809565b81548110611fca57611fca61285f565b90600052602060002090600202016000016000828254611fea9190612835565b9091555061202e9050565b60408051808201909152848152602080820184815283546001818101865560008681529390932093516002909102909301928355519101555b604080518881526020810184905260009133917fc490a74c1058132dffb93944d555ddd1817ae53b7367ea1126ff123b1b134a58910160405180910390a350505050505050565b6001600160a01b038116600090815260036020908152604080832060069092528220815492918291826120a787611638565b509050816001015481836004015485600101546120c49190612835565b6120ce9190612835565b6120d89190612835565b945085156120fa57856120ed86612710612848565b6120f791906127e7565b93505b5050509193909250565b60006368659dd04210156121185750600090565b6201518061212a6368659dd042612809565b61213491906127e7565b905090565b336001600160a01b037f000000000000000000000000000000000000000000000000000000000000000016146121815760405162461bcd60e51b81526004016107ad90612690565b600f54600160a01b900460ff166121da5760405162461bcd60e51b815260206004820152601760248201527f4769766561776179206e6f74207965742061637469766500000000000000000060448201526064016107ad565b60005b600381101561231c5760008282600381106121fa576121fa61285f565b602002013511801561223a5750600083826003811061221b5761221b61285f565b60200201602081019061222e9190612597565b6001600160a01b031614155b15612314576010546001600160a01b037f00000000000000000000000000000000000000000000000000000000000000008116916323b872dd91168584600381106122875761228761285f565b60200201602081019061229a9190612597565b8585600381106122ac576122ac61285f565b60200201356040518463ffffffff1660e01b81526004016122cf93929190612762565b6020604051808303816000875af11580156122ee573d6000803e3d6000fd5b505050506040513d601f19601f820116820180604052508101906123129190612786565b505b6001016121dd565b507fd5e1c7c1f36ea0d607c2fd1be1265b026de8598ac1b26f781d2364fe7754660882824260405161081a939291906128c4565b600061235f6201518083612848565b61236d906368659dd0612835565b92915050565b6000806000806000806000600854600954600a54600b54600c547f00000000000000000000000000000000000000000000000000000000000000006001600160a01b03166370a08231306040518263ffffffff1660e01b81526004016123e891906001600160a01b0391909116815260200190565b602060405180830381865afa158015612405573d6000803e3d6000fd5b505050506040513d601f19601f820116820180604052508101906124299190612875565b612431612104565b959d949c50929a50909850965094509092509050565b6001600160a01b03811660009081526003602052604081208190819081908161246f87611638565b50825460018401546002909401549099939850965094509092505050565b6001600160a01b0380831660009081526007602090815260408083209385168352929052908120549060038210156124cf576124ca826003612809565b6124d2565b60005b90509250929050565b801515811461158757600080fd5b80356001600160a01b038116811461250057600080fd5b919050565b6000806040838503121561251857600080fd5b8235612523816124db565b91506124d2602084016124e9565b6000806040838503121561254457600080fd5b61254d836124e9565b946020939093013593505050565b6000806040838503121561256e57600080fd5b823591506124d2602084016124e9565b60006020828403121561259057600080fd5b5035919050565b6000602082840312156125a957600080fd5b6125b2826124e9565b9392505050565b6000806000604084860312156125ce57600080fd5b83359250602084013567ffffffffffffffff8111156125ec57600080fd5b8401601f810186136125fd57600080fd5b803567ffffffffffffffff81111561261457600080fd5b86602082840101111561262657600080fd5b939660209190910195509293505050565b806060810183101561236d57600080fd5b60008060c0838503121561265b57600080fd5b6126658484612637565b91506124d28460608501612637565b6000806040838503121561268757600080fd5b612523836124e9565b60208082526021908201527f4f6e6c79206f776e65722063616e2063616c6c20746869732066756e6374696f6040820152603760f91b606082015260800190565b60208082526026908201527f4465706f7369742065786365656473206d6178696d756d20283130302c30303060408201526520555344542960d01b606082015260800190565b6020808252602b908201527f436f6e74726163742069732074656d706f726172696c7920706175736564206660408201526a6f7220736563757269747960a81b606082015260800190565b6001600160a01b039384168152919092166020820152604081019190915260600190565b60006020828403121561279857600080fd5b81516125b2816124db565b6020808252601490820152731554d115081d1c985b9cd9995c8819985a5b195960621b604082015260600190565b634e487b7160e01b600052601160045260246000fd5b60008261280457634e487b7160e01b600052601260045260246000fd5b500490565b8181038181111561236d5761236d6127d1565b60006001820161282e5761282e6127d1565b5060010190565b8082018082111561236d5761236d6127d1565b808202811582820484141761236d5761236d6127d1565b634e487b7160e01b600052603260045260246000fd5b60006020828403121561288757600080fd5b5051919050565b83815260406020820152816040820152818360608301376000818301606090810191909152601f909201601f1916010192915050565b60e08101818560005b60038110156128fd576001600160a01b036128e7836124e9565b16835260209283019291909101906001016128cd565b50505060608460608401378260c083015294935050505056fef5cbf596165cc457b2cd92e8d8450827ee314968160a5696402d75766fc52cafa26469706673582212202522962ef92972a1bb5d500d4d9ec3cafa1dc443d27750c8d13298141873959b64736f6c634300081c0033",
  "linkReferences": {},
  "deployedLinkReferences": {}
}